ARM Linker, 4.1 [Build 481] [Standard]

==============================================================================

Section Cross References

    main.o(.text) refers to delay.o(.text) for delay_init
    main.o(.text) refers to sys.o(.text) for NVIC_Configuration
    main.o(.text) refers to usart.o(.text) for uart_init
    main.o(.text) refers to noretval__2printf.o(.text) for __2printf
    main.o(.text) refers to tapdev.o(.text) for tapdev_init
    main.o(.text) refers to uip.o(.text) for uip_init
    main.o(.text) refers to tcp_client_demo.o(.text) for tcp_client_reconnect
    main.o(.text) refers to eth0.o(.text) for uip_polling
    main.o(.text) refers to uip.o(.data) for uip_hostaddr
    main.o(.text) refers to main.o(.data) for run_flag
    eth0.o(.text) refers to _printf_percent.o(.ARM.Collect$$_printf_percent$$00000000) for _printf_percent
    eth0.o(.text) refers to _printf_s.o(.ARM.Collect$$_printf_percent$$00000014) for _printf_s
    eth0.o(.text) refers to _printf_str.o(.text) for _printf_str
    eth0.o(.text) refers to _printf_d.o(.ARM.Collect$$_printf_percent$$00000009) for _printf_d
    eth0.o(.text) refers to _printf_dec.o(.text) for _printf_int_dec
    eth0.o(.text) refers to strcmpv7m.o(.text) for strcmp
    eth0.o(.text) refers to noretval__2printf.o(.text) for __2printf
    eth0.o(.text) refers to noretval__2sprintf.o(.text) for __2sprintf
==============================================================================

Removing Unused input sections from the image.

    Removing led.o(.text), (76 bytes).
    Removing key.o(.text), (252 bytes).
    Removing key.o(.data), (1 bytes).
    Removing core_cm3.o(.emb_text), (32 bytes).
    Removing stm32f10x_bkp.o(.text), (196 bytes).
    Removing stm32f10x_dbgmcu.o(.text), (48 bytes).
    Removing stm32f10x_fsmc.o(.text), (1560 bytes).
    Removing stm32f10x_pwr.o(.text), (216 bytes).
    Removing stm32f10x_rtc.o(.text), (376 bytes).
    Removing stm32f10x_adc.o(.text), (1088 bytes).
    Removing psock.o(.text), (1048 bytes).
    Removing uip-fw.o(.text), (724 bytes).
    Removing uip-fw.o(.bss), (28 bytes).
    Removing uip-fw.o(.data), (8 bytes).
    Removing uiplib.o(.text), (94 bytes).
    Removing uip-neighbor.o(.text), (356 bytes).
    Removing uip-neighbor.o(.bss), (96 bytes).
    Removing uip-split.o(.text), (272 bytes).
==============================================================================

Image Symbol Table

    Local Symbols

    Symbol Name                              Value     Ov Type        Size  Object(Section)

    ../../angel/boardlib.s                   0x00000000   Number         0  boardinit1.o ABSOLUTE
    ../../angel/boardlib.s                   0x00000000   Number         0  boardinit2.o ABSOLUTE
    ../../angel/boardlib.s                   0x00000000   Number         0  boardinit3.o ABSOLUTE
    ../../angel/boardlib.s                   0x00000000   Number         0  boardshut.o ABSOLUTE
    ../../angel/handlers.s                   0x00000000   Number         0  __scatter_zi.o ABSOLUTE
    ../../angel/handlers.s                   0x00000000   Number         0  __scatter_copy.o ABSOLUTE
    ../../angel/kernel.s                     0x00000000   Number         0  rtexit.o ABSOLUTE
    ../../angel/kernel.s                     0x00000000   Number         0  rtexit2.o ABSOLUTE
    ../../angel/kernel.s                     0x00000000   Number         0  rtentry.o ABSOLUTE
    ../../angel/kernel.s                     0x00000000   Number         0  rtentry2.o ABSOLUTE
    ../../angel/kernel.s                     0x00000000   Number         0  rtentry4.o ABSOLUTE
    ../../angel/rt.s                         0x00000000   Number         0  rt_fp_status_addr.o ABSOLUTE
    ../../angel/rt.s                         0x00000000   Number         0  rt_fp_status_addr_intlibspace.o ABSOLUTE
    ../../angel/rt.s                         0x00000000   Number         0  rt_raise.o ABSOLUTE
    ../../angel/scatter.s                    0x00000000   Number         0  __scatter.o ABSOLUTE
    ../../angel/startup.s                    0x00000000   Number         0  __main.o ABSOLUTE
    ../../angel/sys.s                        0x00000000   Number         0  sys_stackheap_outer.o ABSOLUTE
    ../../angel/sys.s                        0x00000000   Number         0  use_no_semi_2.o ABSOLUTE
    ../../angel/sys.s                        0x00000000   Number         0  use_no_semi.o ABSOLUTE
    ../../angel/sys.s                        0x00000000   Number         0  libspace.o ABSOLUTE
    ../../angel/sysapp.c                     0x00000000   Number         0  sys_command.o ABSOLUTE
    ../../angel/sysapp.c                     0x00000000   Number         0  sys_wrch.o ABSOLUTE
    ../../armsys.c                           0x00000000   Number         0  argv_veneer.o ABSOLUTE
    ../../armsys.c                           0x00000000   Number         0  argv_veneer.o ABSOLUTE
    ../../armsys.c                           0x00000000   Number         0  _get_argv_nomalloc.o ABSOLUTE
    ../../armsys.c                           0x00000000   Number         0  no_argv.o ABSOLUTE
    ../../division_7m.s                      0x00000000   Number         0  rtudiv10.o ABSOLUTE
    ../../fpinit.s                           0x00000000   Number         0  fpinit.o ABSOLUTE
    ../../heapalloc.c                        0x00000000   Number         0  hrguard.o ABSOLUTE
    ../../heapaux.c                          0x00000000   Number         0  heapauxi.o ABSOLUTE
    ../../libinit.s                          0x00000000   Number         0  libshutdown.o ABSOLUTE
    ../../libinit.s                          0x00000000   Number         0  libinit2.o ABSOLUTE
    ../../libinit.s                          0x00000000   Number         0  libinit.o ABSOLUTE
    ../../libinit.s                          0x00000000   Number         0  libshutdown2.o ABSOLUTE
    ../../memcpset.s                         0x00000000   Number         0  rt_memcpy_v6.o ABSOLUTE
    ../../memcpset.s                         0x00000000   Number         0  rt_memcpy_w.o ABSOLUTE
    ../../memcpset.s                         0x00000000   Number         0  rt_memclr.o ABSOLUTE
    ../../memcpset.s                         0x00000000   Number         0  strcmpv7m.o ABSOLUTE
    ../../memcpset.s                         0x00000000   Number         0  aeabi_memset.o ABSOLUTE
    ../../memcpset.s                         0x00000000   Number         0  rt_memclr_w.o ABSOLUTE
    ../../printf.c                           0x00000000   Number         0  _printf_str.o ABSOLUTE
    ../../printf.c                           0x00000000   Number         0  __printf_flags.o ABSOLUTE
    ../../printf.c                           0x00000000   Number         0  _printf_intcommon.o ABSOLUTE
    ../../printf.c                           0x00000000   Number         0  __printf_nopercent.o ABSOLUTE
    ../../printf.c                           0x00000000   Number         0  _printf_char_file.o ABSOLUTE
    ../../printf.c                           0x00000000   Number         0  _printf_char.o ABSOLUTE
    ../../printf.c                           0x00000000   Number         0  _sputc.o ABSOLUTE
    ../../printf.c                           0x00000000   Number         0  _printf_char_common.o ABSOLUTE
    ../../printf.c                           0x00000000   Number         0  __printf_flags_ss_wp.o ABSOLUTE
    ../../printf.c                           0x00000000   Number         0  __printf_ss_wp.o ABSOLUTE
    ../../printf.c                           0x00000000   Number         0  _printf_dec.o ABSOLUTE
    ../../printf.c                           0x00000000   Number         0  __printf_flags_wp.o ABSOLUTE
    ../../printf.c                           0x00000000   Number         0  __2printf.o ABSOLUTE
    ../../printf.c                           0x00000000   Number         0  __2sprintf.o ABSOLUTE
    ../../printf.c                           0x00000000   Number         0  noretval__2printf.o ABSOLUTE
    ../../printf.c                           0x00000000   Number         0  __printf_wp.o ABSOLUTE
    ../../printf.c                           0x00000000   Number         0  noretval__2sprintf.o ABSOLUTE
    ../../printf.c                           0x00000000   Number         0  __printf_flags_ss.o ABSOLUTE
    ../../printf.c                           0x00000000   Number         0  __printf.o ABSOLUTE
    ../../printf.c                           0x00000000   Number         0  __printf_ss.o ABSOLUTE
    ../../printf_percent.s                   0x00000000   Number         0  _printf_percent.o ABSOLUTE
    ../../printf_percent.s                   0x00000000   Number         0  _printf_d.o ABSOLUTE
    ../../printf_percent.s                   0x00000000   Number         0  _printf_s.o ABSOLUTE
    ../../printf_percent.s                   0x00000000   Number         0  _printf_percent_end.o ABSOLUTE
    ../../signal.c                           0x00000000   Number         0  defsig_general.o ABSOLUTE
    ../../signal.c                           0x00000000   Number         0  defsig_other.o ABSOLUTE
    ../../signal.c                           0x00000000   Number         0  defsig_cppl_inner.o ABSOLUTE
    ../../signal.c                           0x00000000   Number         0  defsig_segv_inner.o ABSOLUTE
    ../../signal.c                           0x00000000   Number         0  defsig_abrt_inner.o ABSOLUTE
    ../../signal.c                           0x00000000   Number         0  defsig_fpe_inner.o ABSOLUTE
    ../../signal.c                           0x00000000   Number         0  defsig_rtred_inner.o ABSOLUTE
    ../../signal.c                           0x00000000   Number         0  defsig_exit.o ABSOLUTE
    ../../signal.c                           0x00000000   Number         0  defsig_rtmem_inner.o ABSOLUTE
    ../../signal.c                           0x00000000   Number         0  __raise.o ABSOLUTE
    ../../signal.c                           0x00000000   Number         0  defsig_pvfn_inner.o ABSOLUTE
    ../../signal.c                           0x00000000   Number         0  defsig_stak_inner.o ABSOLUTE
    ../../signal.c                           0x00000000   Number         0  defsig_rtmem_formal.o ABSOLUTE
    ../../signal.c                           0x00000000   Number         0  defsig_rtmem_outer.o ABSOLUTE
    ../../signal.s                           0x00000000   Number         0  defsig.o ABSOLUTE
    ../../stdio.c                            0x00000000   Number         0  ferror.o ABSOLUTE
    ../../stdio.c                            0x00000000   Number         0  ferror_locked.o ABSOLUTE
    ../../stdlib.c                           0x00000000   Number         0  exit.o ABSOLUTE
    ../../string.c                           0x00000000   Number         0  strcpy.o ABSOLUTE
    ../../string.c                           0x00000000   Number         0  strlen.o ABSOLUTE
    ..\CORE\core_cm3.c                       0x00000000   Number         0  core_cm3.o ABSOLUTE
    ..\CORE\startup_stm32f10x_hd.s           0x00000000   Number         0  startup_stm32f10x_hd.o ABSOLUTE
    ..\HARDWARE\KEY\key.c                    0x00000000   Number         0  key.o ABSOLUTE
    ..\HARDWARE\LED\led.c                    0x00000000   Number         0  led.o ABSOLUTE
    ..\HARDWARE\STMFLASH\stmflash.c          0x00000000   Number         0  stmflash.o ABSOLUTE
    ..\HARDWARE\TIMER\timerx.c               0x00000000   Number         0  timerx.o ABSOLUTE
    ..\HARDWARE\new_enc28\enc28j60.c         0x00000000   Number         0  enc28j60.o ABSOLUTE
    ..\HARDWARE\new_enc28\spi_enc28j60.c     0x00000000   Number         0  spi_enc28j60.o ABSOLUTE
    ..\IAP\iap.c                             0x00000000   Number         0  iap.o ABSOLUTE
    ..\STM32F10x_FWLib\src\misc.c            0x00000000   Number         0  misc.o ABSOLUTE
    ..\STM32F10x_FWLib\src\stm32f10x_adc.c   0x00000000   Number         0  stm32f10x_adc.o ABSOLUTE
    ..\STM32F10x_FWLib\src\stm32f10x_bkp.c   0x00000000   Number         0  stm32f10x_bkp.o ABSOLUTE
    ..\STM32F10x_FWLib\src\stm32f10x_dbgmcu.c 0x00000000   Number         0  stm32f10x_dbgmcu.o ABSOLUTE
    ..\STM32F10x_FWLib\src\stm32f10x_flash.c 0x00000000   Number         0  stm32f10x_flash.o ABSOLUTE
    ..\STM32F10x_FWLib\src\stm32f10x_fsmc.c  0x00000000   Number         0  stm32f10x_fsmc.o ABSOLUTE
    ..\STM32F10x_FWLib\src\stm32f10x_gpio.c  0x00000000   Number         0  stm32f10x_gpio.o ABSOLUTE
    ..\STM32F10x_FWLib\src\stm32f10x_pwr.c   0x00000000   Number         0  stm32f10x_pwr.o ABSOLUTE
    ..\STM32F10x_FWLib\src\stm32f10x_rcc.c   0x00000000   Number         0  stm32f10x_rcc.o ABSOLUTE
    ..\STM32F10x_FWLib\src\stm32f10x_rtc.c   0x00000000   Number         0  stm32f10x_rtc.o ABSOLUTE
    ..\STM32F10x_FWLib\src\stm32f10x_spi.c   0x00000000   Number         0  stm32f10x_spi.o ABSOLUTE
    ..\STM32F10x_FWLib\src\stm32f10x_tim.c   0x00000000   Number         0  stm32f10x_tim.o ABSOLUTE
    ..\STM32F10x_FWLib\src\stm32f10x_usart.c 0x00000000   Number         0  stm32f10x_usart.o ABSOLUTE
    ..\SYSTEM\delay\delay.c                  0x00000000   Number         0  delay.o ABSOLUTE
    ..\SYSTEM\sys\sys.c                      0x00000000   Number         0  sys.o ABSOLUTE
    ..\SYSTEM\usart\usart.c                  0x00000000   Number         0  usart.o ABSOLUTE
    ..\\CORE\\core_cm3.c                     0x00000000   Number         0  core_cm3.o ABSOLUTE
    ..\\SYSTEM\\sys\\sys.c                   0x00000000   Number         0  sys.o ABSOLUTE
    ..\uIP-1.0\uip\psock.c                   0x00000000   Number         0  psock.o ABSOLUTE
    ..\uIP-1.0\uip\timer.c                   0x00000000   Number         0  timer.o ABSOLUTE
    ..\uIP-1.0\uip\uip-fw.c                  0x00000000   Number         0  uip-fw.o ABSOLUTE
    ..\uIP-1.0\uip\uip-neighbor.c            0x00000000   Number         0  uip-neighbor.o ABSOLUTE
    ..\uIP-1.0\uip\uip-split.c               0x00000000   Number         0  uip-split.o ABSOLUTE
    ..\uIP-1.0\uip\uip.c                     0x00000000   Number         0  uip.o ABSOLUTE
    ..\uIP-1.0\uip\uip_arp.c                 0x00000000   Number         0  uip_arp.o ABSOLUTE
    ..\uIP-1.0\uip\uiplib.c                  0x00000000   Number         0  uiplib.o ABSOLUTE
    ..\uIP-APP\clock-arch.c                  0x00000000   Number         0  clock-arch.o ABSOLUTE
    ..\uIP-APP\tapdev.c                      0x00000000   Number         0  tapdev.o ABSOLUTE
    ..\uIP-APP\tcp_client_demo.c             0x00000000   Number         0  tcp_client_demo.o ABSOLUTE
    ..\uIP-APP\tcp_demo.c                    0x00000000   Number         0  tcp_demo.o ABSOLUTE
    dc.s                                     0x00000000   Number         0  dc.o ABSOLUTE
    eth0.c                                   0x00000000   Number         0  eth0.o ABSOLUTE
    main.c                                   0x00000000   Number         0  main.o ABSOLUTE
    stm32f10x_it.c                           0x00000000   Number         0  stm32f10x_it.o ABSOLUTE
    system_stm32f10x.c                       0x00000000   Number         0  system_stm32f10x.o ABSOLUTE
    RESET                                    0x08000000   Section      304  startup_stm32f10x_hd.o(RESET)
    !!!main                                  0x08000130   Section        8  __main.o(!!!main)
    !!!scatter                               0x08000138   Section       52  __scatter.o(!!!scatter)
    !!handler_copy                           0x0800016c   Section       26  __scatter_copy.o(!!handler_copy)
    !!handler_zi                             0x08000188   Section       28  __scatter_zi.o(!!handler_zi)
    .ARM.Collect$$_printf_percent$$00000000  0x080001a4   Section        0  _printf_percent.o(.ARM.Collect$$_printf_percent$$00000000)
    .ARM.Collect$$_printf_percent$$00000009  0x080001a4   Section        6  _printf_d.o(.ARM.Collect$$_printf_percent$$00000009)
    .ARM.Collect$$_printf_percent$$00000014  0x080001aa   Section        6  _printf_s.o(.ARM.Collect$$_printf_percent$$00000014)
    .ARM.Collect$$_printf_percent$$00000017  0x080001b0   Section        4  _printf_percent_end.o(.ARM.Collect$$_printf_percent$$00000017)
    .ARM.Collect$$libinit$$00000000          0x080001b4   Section        6  libinit.o(.ARM.Collect$$libinit$$00000000)
    .ARM.Collect$$libinit$$00000006          0x080001ba   Section        0  libinit2.o(.ARM.Collect$$libinit$$00000006)
    .ARM.Collect$$libinit$$00000008          0x080001ba   Section        0  libinit2.o(.ARM.Collect$$libinit$$00000008)
    .ARM.Collect$$libinit$$0000000A          0x080001ba   Section        0  libinit2.o(.ARM.Collect$$libinit$$0000000A)
    .ARM.Collect$$libinit$$0000000D          0x080001ba   Section        0  libinit2.o(.ARM.Collect$$libinit$$0000000D)
    .ARM.Collect$$libinit$$0000000F          0x080001ba   Section        0  libinit2.o(.ARM.Collect$$libinit$$0000000F)
    .ARM.Collect$$libinit$$00000011          0x080001ba   Section        0  libinit2.o(.ARM.Collect$$libinit$$00000011)
    .ARM.Collect$$libinit$$00000013          0x080001ba   Section        0  libinit2.o(.ARM.Collect$$libinit$$00000013)
    .ARM.Collect$$libinit$$00000015          0x080001ba   Section        0  libinit2.o(.ARM.Collect$$libinit$$00000015)
    .ARM.Collect$$libinit$$00000017          0x080001ba   Section        0  libinit2.o(.ARM.Collect$$libinit$$00000017)
    .ARM.Collect$$libinit$$00000019          0x080001ba   Section        0  libinit2.o(.ARM.Collect$$libinit$$00000019)
    .ARM.Collect$$libinit$$0000001B          0x080001ba   Section        0  libinit2.o(.ARM.Collect$$libinit$$0000001B)
    .ARM.Collect$$libinit$$0000001D          0x080001ba   Section        0  libinit2.o(.ARM.Collect$$libinit$$0000001D)
    .ARM.Collect$$libinit$$0000001F          0x080001ba   Section        0  libinit2.o(.ARM.Collect$$libinit$$0000001F)
    .ARM.Collect$$libinit$$00000021          0x080001ba   Section        0  libinit2.o(.ARM.Collect$$libinit$$00000021)
    .ARM.Collect$$libinit$$00000028          0x080001ba   Section        0  libinit2.o(.ARM.Collect$$libinit$$00000028)
    .ARM.Collect$$libinit$$0000002A          0x080001ba   Section        0  libinit2.o(.ARM.Collect$$libinit$$0000002A)
    .ARM.Collect$$libinit$$0000002C          0x080001ba   Section        0  libinit2.o(.ARM.Collect$$libinit$$0000002C)
    .ARM.Collect$$libinit$$0000002E          0x080001ba   Section        0  libinit2.o(.ARM.Collect$$libinit$$0000002E)
    .ARM.Collect$$libinit$$0000002F          0x080001ba   Section        2  libinit2.o(.ARM.Collect$$libinit$$0000002F)
    .ARM.Collect$$libshutdown$$00000000      0x080001bc   Section        2  libshutdown.o(.ARM.Collect$$libshutdown$$00000000)
    .ARM.Collect$$libshutdown$$00000003      0x080001be   Section        0  libshutdown2.o(.ARM.Collect$$libshutdown$$00000003)
    .ARM.Collect$$libshutdown$$00000006      0x080001be   Section        0  libshutdown2.o(.ARM.Collect$$libshutdown$$00000006)
    .ARM.Collect$$libshutdown$$00000009      0x080001be   Section        0  libshutdown2.o(.ARM.Collect$$libshutdown$$00000009)
    .ARM.Collect$$libshutdown$$0000000B      0x080001be   Section        0  libshutdown2.o(.ARM.Collect$$libshutdown$$0000000B)
    .ARM.Collect$$libshutdown$$0000000E      0x080001be   Section        0  libshutdown2.o(.ARM.Collect$$libshutdown$$0000000E)
    .ARM.Collect$$libshutdown$$0000000F      0x080001be   Section        2  libshutdown2.o(.ARM.Collect$$libshutdown$$0000000F)
    .ARM.Collect$$rtentry$$00000000          0x080001c0   Section        0  rtentry.o(.ARM.Collect$$rtentry$$00000000)
    .ARM.Collect$$rtentry$$00000002          0x080001c0   Section        0  rtentry2.o(.ARM.Collect$$rtentry$$00000002)
    .ARM.Collect$$rtentry$$00000004          0x080001c0   Section        6  rtentry4.o(.ARM.Collect$$rtentry$$00000004)
    .ARM.Collect$$rtentry$$00000009          0x080001c6   Section        0  rtentry2.o(.ARM.Collect$$rtentry$$00000009)
    .ARM.Collect$$rtentry$$0000000A          0x080001c6   Section        4  rtentry2.o(.ARM.Collect$$rtentry$$0000000A)
    .ARM.Collect$$rtentry$$0000000C          0x080001ca   Section        0  rtentry2.o(.ARM.Collect$$rtentry$$0000000C)
    .ARM.Collect$$rtentry$$0000000D          0x080001ca   Section        8  rtentry2.o(.ARM.Collect$$rtentry$$0000000D)
    .ARM.Collect$$rtexit$$00000000           0x080001d2   Section        2  rtexit.o(.ARM.Collect$$rtexit$$00000000)
    .ARM.Collect$$rtexit$$00000002           0x080001d4   Section        0  rtexit2.o(.ARM.Collect$$rtexit$$00000002)
    .ARM.Collect$$rtexit$$00000003           0x080001d4   Section        4  rtexit2.o(.ARM.Collect$$rtexit$$00000003)
    .ARM.Collect$$rtexit$$00000004           0x080001d8   Section        6  rtexit2.o(.ARM.Collect$$rtexit$$00000004)
    .emb_text                                0x080001e0   Section       12  sys.o(.emb_text)
    .text                                    0x080001ec   Section        0  main.o(.text)
    .text                                    0x080002e8   Section        0  eth0.o(.text)
    .text                                    0x080005c8   Section        0  stm32f10x_it.o(.text)
    .text                                    0x080005e4   Section        0  system_stm32f10x.o(.text)
    SetSysClockTo72                          0x080005e5   Thumb Code   192  system_stm32f10x.o(.text)
    SetSysClock                              0x080006a5   Thumb Code     8  system_stm32f10x.o(.text)
    .text                                    0x080007ac   Section        0  timerx.o(.text)
    .text                                    0x08000830   Section        0  stmflash.o(.text)
    .text                                    0x08000974   Section        0  spi_enc28j60.o(.text)
    .text                                    0x08000a58   Section        0  enc28j60.o(.text)
    ENC28J60_SPI1_Init                       0x08000a59   Thumb Code     8  enc28j60.o(.text)
    .text                                    0x08000e88   Section        0  delay.o(.text)
    .text                                    0x08000f4c   Section        0  sys.o(.text)
    .text                                    0x08000f58   Section        0  usart.o(.text)
    .text                                    0x08001098   Section       64  startup_stm32f10x_hd.o(.text)
    .text                                    0x080010d8   Section        0  misc.o(.text)
    .text                                    0x080011d0   Section        0  stm32f10x_gpio.o(.text)
    .text                                    0x08001528   Section        0  stm32f10x_rcc.o(.text)
    .text                                    0x080018cc   Section        0  stm32f10x_usart.o(.text)
    .text                                    0x08001cd8   Section        0  stm32f10x_tim.o(.text)
    TI4_Config                               0x08002161   Thumb Code   118  stm32f10x_tim.o(.text)
    TI3_Config                               0x080021e9   Thumb Code   114  stm32f10x_tim.o(.text)
    TI2_Config                               0x08002271   Thumb Code   118  stm32f10x_tim.o(.text)
    TI1_Config                               0x080022f9   Thumb Code   106  stm32f10x_tim.o(.text)
    .text                                    0x08002a88   Section        0  stm32f10x_spi.o(.text)
    .text                                    0x08002d98   Section        0  stm32f10x_flash.o(.text)
    .text                                    0x08003360   Section        0  timer.o(.text)
    .text                                    0x080033a0   Section        0  uip.o(.text)
    chksum                                   0x08003411   Thumb Code    70  uip.o(.text)
    upper_layer_chksum                       0x0800349b   Thumb Code    70  uip.o(.text)
    uip_add_rcv_nxt                          0x080036bf   Thumb Code    58  uip.o(.text)
    .text                                    0x080046d4   Section        0  uip_arp.o(.text)
    uip_arp_update                           0x0800474f   Thumb Code   272  uip_arp.o(.text)
    .text                                    0x08004ae0   Section        0  clock-arch.o(.text)
    .text                                    0x08004aec   Section        0  tapdev.o(.text)
    .text                                    0x08004b48   Section        0  tcp_client_demo.o(.text)
    .text                                    0x08004dfc   Section        0  tcp_demo.o(.text)
    .text                                    0x08004e40   Section        0  iap.o(.text)
    .text                                    0x08004ed8   Section        2  use_no_semi_2.o(.text)
    .text                                    0x08004edc   Section        0  noretval__2printf.o(.text)
    .text                                    0x08004ef4   Section        0  noretval__2sprintf.o(.text)
    .text                                    0x08004f1c   Section        0  __printf.o(.text)
    .text                                    0x08004f86   Section        0  _printf_str.o(.text)
    .text                                    0x08004fd8   Section        0  _printf_dec.o(.text)
    .text                                    0x0800504c   Section        0  strcpy.o(.text)
    .text                                    0x08005094   Section        0  strlen.o(.text)
    .text                                    0x080050d2   Section      138  rt_memcpy_v6.o(.text)
    .text                                    0x0800515c   Section       16  aeabi_memset.o(.text)
    .text                                    0x0800516c   Section      128  strcmpv7m.o(.text)
    .text                                    0x080051ec   Section        0  heapauxi.o(.text)
    .text                                    0x080051f2   Section        2  use_no_semi.o(.text)
    .text                                    0x080051f4   Section        0  _printf_intcommon.o(.text)
    .text                                    0x080052a8   Section        0  _printf_char_common.o(.text)
    _printf_input_char                       0x080052a9   Thumb Code    10  _printf_char_common.o(.text)
    .text                                    0x080052d8   Section        0  _sputc.o(.text)
    .text                                    0x080052e2   Section        0  _printf_char.o(.text)
    .text                                    0x08005310   Section        0  _printf_char_file.o(.text)
    .text                                    0x08005334   Section      100  rt_memcpy_w.o(.text)
    .text                                    0x08005398   Section       68  rt_memclr.o(.text)
    .text                                    0x080053dc   Section       16  rtudiv10.o(.text)
    .text                                    0x080053ec   Section        0  ferror.o(.text)
    .text                                    0x080053f4   Section       78  rt_memclr_w.o(.text)
    .text                                    0x08005442   Section       74  sys_stackheap_outer.o(.text)
    .text                                    0x0800548c   Section        0  exit.o(.text)
    .text                                    0x08005498   Section        8  libspace.o(.text)
    .text                                    0x080054a0   Section       12  rt_fp_status_addr_intlibspace.o(.text)
    x$fpl$fpinit                             0x080054ac   Section       14  fpinit.o(x$fpl$fpinit)
    .constdata                               0x080054ba   Section        4  uip.o(.constdata)
    all_zeroes_addr                          0x080054ba   Data           4  uip.o(.constdata)
    .constdata                               0x080054be   Section       10  uip_arp.o(.constdata)
    broadcast_ethaddr                        0x080054be   Data           6  uip_arp.o(.constdata)
    broadcast_ipaddr                         0x080054c4   Data           4  uip_arp.o(.constdata)
    .constdata                               0x080054c8   Section        6  tapdev.o(.constdata)
    .data                                    0x20000000   Section        1  main.o(.data)
    .data                                    0x20000004   Section       21  eth0.o(.data)
    periodic_timer                           0x20000008   Data           8  eth0.o(.data)
    arp_timer                                0x20000010   Data           8  eth0.o(.data)
    timer_ok                                 0x20000018   Data           1  eth0.o(.data)
    .data                                    0x2000001c   Section       20  system_stm32f10x.o(.data)
    .data                                    0x20000030   Section        4  timerx.o(.data)
    .data                                    0x20000034   Section        8  enc28j60.o(.data)
    ENC28J60BANK                             0x20000034   Data           1  enc28j60.o(.data)
    NextPacketPtr                            0x20000038   Data           4  enc28j60.o(.data)
    .data                                    0x2000003c   Section        4  delay.o(.data)
    fac_us                                   0x2000003c   Data           1  delay.o(.data)
    fac_ms                                   0x2000003e   Data           2  delay.o(.data)
    .data                                    0x20000040   Section        8  usart.o(.data)
    .data                                    0x20000048   Section       20  stm32f10x_rcc.o(.data)
    APBAHBPrescTable                         0x20000048   Data          16  stm32f10x_rcc.o(.data)
    ADCPrescTable                            0x20000058   Data           4  stm32f10x_rcc.o(.data)
    .data                                    0x2000005c   Section       56  uip.o(.data)
    ipid                                     0x20000084   Data           2  uip.o(.data)
    iss                                      0x20000086   Data           4  uip.o(.data)
    lastport                                 0x2000008a   Data           2  uip.o(.data)
    c                                        0x20000090   Data           1  uip.o(.data)
    opt                                      0x20000091   Data           1  uip.o(.data)
    tmp16                                    0x20000092   Data           2  uip.o(.data)
    .data                                    0x20000094   Section        8  uip_arp.o(.data)
    ipaddr                                   0x20000094   Data           4  uip_arp.o(.data)
    i                                        0x20000098   Data           1  uip_arp.o(.data)
    c                                        0x20000099   Data           1  uip_arp.o(.data)
    arptime                                  0x2000009a   Data           1  uip_arp.o(.data)
    tmpage                                   0x2000009b   Data           1  uip_arp.o(.data)
    .data                                    0x2000009c   Section        3  tcp_client_demo.o(.data)
    .data                                    0x200000a0   Section        4  iap.o(.data)
    .bss                                     0x200000a4   Section     2048  stmflash.o(.bss)
    .bss                                     0x200008a4   Section      200  usart.o(.bss)
    .bss                                     0x2000096c   Section       96  uip_arp.o(.bss)
    arp_table                                0x2000096c   Data          96  uip_arp.o(.bss)
    .bss                                     0x200009cc   Section     1500  tcp_client_demo.o(.bss)
    .ARM.__AT_0x20001000                     0x20001000   Section    30720  eth0.o(.ARM.__AT_0x20001000)
    .bss                                     0x20008800   Section     5824  uip.o(.bss)
    .bss                                     0x20009ec0   Section     2048  iap.o(.bss)
    .bss                                     0x2000a6c0   Section       96  libspace.o(.bss)
    HEAP                                     0x2000a720   Section      512  startup_stm32f10x_hd.o(HEAP)
    Heap_Mem                                 0x2000a720   Data         512  startup_stm32f10x_hd.o(HEAP)
    STACK                                    0x2000a920   Section     1024  startup_stm32f10x_hd.o(STACK)
    Stack_Mem                                0x2000a920   Data        1024  startup_stm32f10x_hd.o(STACK)
    __initial_sp                             0x2000ad20   Data           0  startup_stm32f10x_hd.o(STACK)

    Global Symbols

    Symbol Name                              Value     Ov Type        Size  Object(Section)

    BuildAttributes$$THM_ISAv4$P$D$K$B$S$PE$A:L22UL41UL21$X:L11$S22US41US21$IEEE1$IW$USESV6$~STKCKD$USESV7$~SHL$OSPACE$ROPI$EBA8$UX$STANDARDLIB$REQ8$PRES8$EABIv2 0x00000000   Number         0  anon$$obj.o ABSOLUTE
    __ARM_use_no_argv                        0x00000000   Number         0  main.o ABSOLUTE
    __ARM_exceptions_init                     - Undefined Weak Reference
    __alloca_initialize                       - Undefined Weak Reference
    __cpp_initialize__aeabi_                  - Undefined Weak Reference
    __cxa_finalize                            - Undefined Weak Reference
    __rt_locale                               - Undefined Weak Reference
    __sigvec_lookup                           - Undefined Weak Reference
    _atexit_init                              - Undefined Weak Reference
    _call_atexit_fns                          - Undefined Weak Reference
    _clock_init                               - Undefined Weak Reference
    _fp_trap_init                             - Undefined Weak Reference
    _fp_trap_shutdown                         - Undefined Weak Reference
    _get_lc_collate                           - Undefined Weak Reference
    _get_lc_ctype                             - Undefined Weak Reference
    _get_lc_monetary                          - Undefined Weak Reference
    _get_lc_numeric                           - Undefined Weak Reference
    _get_lc_time                              - Undefined Weak Reference
    _getenv_init                              - Undefined Weak Reference
    _handle_redirection                       - Undefined Weak Reference
    _init_alloc                               - Undefined Weak Reference
    _init_user_alloc                          - Undefined Weak Reference
    _initio                                   - Undefined Weak Reference
    _mutex_acquire                            - Undefined Weak Reference
    _mutex_release                            - Undefined Weak Reference
    _printf_mbtowc                            - Undefined Weak Reference
    _printf_post_padding                      - Undefined Weak Reference
    _printf_pre_padding                       - Undefined Weak Reference
    _printf_truncate_signed                   - Undefined Weak Reference
    _printf_truncate_unsigned                 - Undefined Weak Reference
    _rand_init                                - Undefined Weak Reference
    _signal_finish                            - Undefined Weak Reference
    _signal_init                              - Undefined Weak Reference
    _terminate_alloc                          - Undefined Weak Reference
    _terminate_user_alloc                     - Undefined Weak Reference
    _terminateio                              - Undefined Weak Reference
    __Vectors_Size                           0x00000130   Number         0  startup_stm32f10x_hd.o ABSOLUTE
    __Vectors                                0x08000000   Data           4  startup_stm32f10x_hd.o(RESET)
    __Vectors_End                            0x08000130   Data           0  startup_stm32f10x_hd.o(RESET)
    __main                                   0x08000131   Thumb Code     8  __main.o(!!!main)
    __scatterload                            0x08000139   Thumb Code     0  __scatter.o(!!!scatter)
    __scatterload_rt2                        0x08000139   Thumb Code    44  __scatter.o(!!!scatter)
    __scatterload_rt2_thumb_only             0x08000139   Thumb Code     0  __scatter.o(!!!scatter)
    __scatterload_null                       0x08000147   Thumb Code     0  __scatter.o(!!!scatter)
    __scatterload_copy                       0x0800016d   Thumb Code    26  __scatter_copy.o(!!handler_copy)
    __scatterload_zeroinit                   0x08000189   Thumb Code    28  __scatter_zi.o(!!handler_zi)
    _printf_d                                0x080001a5   Thumb Code     0  _printf_d.o(.ARM.Collect$$_printf_percent$$00000009)
    _printf_percent                          0x080001a5   Thumb Code     0  _printf_percent.o(.ARM.Collect$$_printf_percent$$00000000)
    _printf_s                                0x080001ab   Thumb Code     0  _printf_s.o(.ARM.Collect$$_printf_percent$$00000014)
    _printf_percent_end                      0x080001b1   Thumb Code     0  _printf_percent_end.o(.ARM.Collect$$_printf_percent$$00000017)
    __rt_lib_init                            0x080001b5   Thumb Code     0  libinit.o(.ARM.Collect$$libinit$$00000000)
    __rt_lib_init_alloca_1                   0x080001bb   Thumb Code     0  libinit2.o(.ARM.Collect$$libinit$$0000002A)
    __rt_lib_init_argv_1                     0x080001bb   Thumb Code     0  libinit2.o(.ARM.Collect$$libinit$$00000028)
    __rt_lib_init_atexit_1                   0x080001bb   Thumb Code     0  libinit2.o(.ARM.Collect$$libinit$$00000017)
    __rt_lib_init_clock_1                    0x080001bb   Thumb Code     0  libinit2.o(.ARM.Collect$$libinit$$0000001D)
    __rt_lib_init_cpp_1                      0x080001bb   Thumb Code     0  libinit2.o(.ARM.Collect$$libinit$$0000002E)
    __rt_lib_init_exceptions_1               0x080001bb   Thumb Code     0  libinit2.o(.ARM.Collect$$libinit$$0000002C)
    __rt_lib_init_fp_trap_1                  0x080001bb   Thumb Code     0  libinit2.o(.ARM.Collect$$libinit$$0000001B)
    __rt_lib_init_getenv_1                   0x080001bb   Thumb Code     0  libinit2.o(.ARM.Collect$$libinit$$0000001F)
    __rt_lib_init_heap_1                     0x080001bb   Thumb Code     0  libinit2.o(.ARM.Collect$$libinit$$00000006)
    __rt_lib_init_lc_collate_1               0x080001bb   Thumb Code     0  libinit2.o(.ARM.Collect$$libinit$$0000000D)
    __rt_lib_init_lc_ctype_1                 0x080001bb   Thumb Code     0  libinit2.o(.ARM.Collect$$libinit$$0000000F)
    __rt_lib_init_lc_monetary_1              0x080001bb   Thumb Code     0  libinit2.o(.ARM.Collect$$libinit$$00000011)
    __rt_lib_init_lc_numeric_1               0x080001bb   Thumb Code     0  libinit2.o(.ARM.Collect$$libinit$$00000013)
    __rt_lib_init_lc_time_1                  0x080001bb   Thumb Code     0  libinit2.o(.ARM.Collect$$libinit$$00000015)
    __rt_lib_init_rand_1                     0x080001bb   Thumb Code     0  libinit2.o(.ARM.Collect$$libinit$$0000000A)
    __rt_lib_init_return                     0x080001bb   Thumb Code     0  libinit2.o(.ARM.Collect$$libinit$$0000002F)
    __rt_lib_init_signal_1                   0x080001bb   Thumb Code     0  libinit2.o(.ARM.Collect$$libinit$$00000019)
    __rt_lib_init_stdio_1                    0x080001bb   Thumb Code     0  libinit2.o(.ARM.Collect$$libinit$$00000021)
    __rt_lib_init_user_alloc_1               0x080001bb   Thumb Code     0  libinit2.o(.ARM.Collect$$libinit$$00000008)
    __rt_lib_shutdown                        0x080001bd   Thumb Code     0  libshutdown.o(.ARM.Collect$$libshutdown$$00000000)
    __rt_lib_shutdown_fp_trap_1              0x080001bf   Thumb Code     0  libshutdown2.o(.ARM.Collect$$libshutdown$$00000006)
    __rt_lib_shutdown_heap_1                 0x080001bf   Thumb Code     0  libshutdown2.o(.ARM.Collect$$libshutdown$$0000000E)
    __rt_lib_shutdown_return                 0x080001bf   Thumb Code     0  libshutdown2.o(.ARM.Collect$$libshutdown$$0000000F)
    __rt_lib_shutdown_signal_1               0x080001bf   Thumb Code     0  libshutdown2.o(.ARM.Collect$$libshutdown$$00000009)
    __rt_lib_shutdown_stdio_1                0x080001bf   Thumb Code     0  libshutdown2.o(.ARM.Collect$$libshutdown$$00000003)
    __rt_lib_shutdown_user_alloc_1           0x080001bf   Thumb Code     0  libshutdown2.o(.ARM.Collect$$libshutdown$$0000000B)
    __rt_entry                               0x080001c1   Thumb Code     0  rtentry.o(.ARM.Collect$$rtentry$$00000000)
    __rt_entry_presh_1                       0x080001c1   Thumb Code     0  rtentry2.o(.ARM.Collect$$rtentry$$00000002)
    __rt_entry_sh                            0x080001c1   Thumb Code     0  rtentry4.o(.ARM.Collect$$rtentry$$00000004)
    __rt_entry_li                            0x080001c7   Thumb Code     0  rtentry2.o(.ARM.Collect$$rtentry$$0000000A)
    __rt_entry_postsh_1                      0x080001c7   Thumb Code     0  rtentry2.o(.ARM.Collect$$rtentry$$00000009)
    __rt_entry_main                          0x080001cb   Thumb Code     0  rtentry2.o(.ARM.Collect$$rtentry$$0000000D)
    __rt_entry_postli_1                      0x080001cb   Thumb Code     0  rtentry2.o(.ARM.Collect$$rtentry$$0000000C)
    __rt_exit                                0x080001d3   Thumb Code     0  rtexit.o(.ARM.Collect$$rtexit$$00000000)
    __rt_exit_ls                             0x080001d5   Thumb Code     0  rtexit2.o(.ARM.Collect$$rtexit$$00000003)
    __rt_exit_prels_1                        0x080001d5   Thumb Code     0  rtexit2.o(.ARM.Collect$$rtexit$$00000002)
    __rt_exit_exit                           0x080001d9   Thumb Code     0  rtexit2.o(.ARM.Collect$$rtexit$$00000004)
    WFI_SET                                  0x080001e1   Thumb Code     2  sys.o(.emb_text)
    INTX_DISABLE                             0x080001e3   Thumb Code     2  sys.o(.emb_text)
    INTX_ENABLE                              0x080001e5   Thumb Code     2  sys.o(.emb_text)
    MSR_MSP                                  0x080001e7   Thumb Code     6  sys.o(.emb_text)
    All_init                                 0x080001ed   Thumb Code   162  main.o(.text)
    main                                     0x0800028f   Thumb Code    36  main.o(.text)
    eth0_receive                             0x080002e9   Thumb Code   142  eth0.o(.text)
    eth0_send                                0x08000377   Thumb Code    44  eth0.o(.text)
    uip_polling                              0x080003a3   Thumb Code   208  eth0.o(.text)
    IAP_update                               0x08000473   Thumb Code    88  eth0.o(.text)
    IAP_run                                  0x080004cb   Thumb Code    40  eth0.o(.text)
    NMI_Handler                              0x080005c9   Thumb Code     2  stm32f10x_it.o(.text)
    HardFault_Handler                        0x080005cb   Thumb Code     4  stm32f10x_it.o(.text)
    MemManage_Handler                        0x080005cf   Thumb Code     4  stm32f10x_it.o(.text)
    BusFault_Handler                         0x080005d3   Thumb Code     4  stm32f10x_it.o(.text)
    UsageFault_Handler                       0x080005d7   Thumb Code     4  stm32f10x_it.o(.text)
    SVC_Handler                              0x080005db   Thumb Code     2  stm32f10x_it.o(.text)
    DebugMon_Handler                         0x080005dd   Thumb Code     2  stm32f10x_it.o(.text)
    PendSV_Handler                           0x080005df   Thumb Code     2  stm32f10x_it.o(.text)
    SysTick_Handler                          0x080005e1   Thumb Code     2  stm32f10x_it.o(.text)
    SystemInit                               0x080006ad   Thumb Code    78  system_stm32f10x.o(.text)
    SystemCoreClockUpdate                    0x080006fb   Thumb Code   142  system_stm32f10x.o(.text)
    TIM6_IRQHandler                          0x080007ad   Thumb Code    32  timerx.o(.text)
    TIM6_Int_Init                            0x080007cd   Thumb Code    90  timerx.o(.text)
    STMFLASH_ReadHalfWord                    0x08000831   Thumb Code     6  stmflash.o(.text)
    STMFLASH_Write_NoCheck                   0x08000837   Thumb Code    38  stmflash.o(.text)
    STMFLASH_Read                            0x0800085d   Thumb Code    34  stmflash.o(.text)
    STMFLASH_Write                           0x0800087f   Thumb Code   222  stmflash.o(.text)
    Test_Write                               0x0800095d   Thumb Code    16  stmflash.o(.text)
    SPI1_Init                                0x08000975   Thumb Code   168  spi_enc28j60.o(.text)
    SPI1_ReadWriteByte                       0x08000a1d   Thumb Code    50  spi_enc28j60.o(.text)
    ENC28J60_Reset                           0x08000a61   Thumb Code    20  enc28j60.o(.text)
    ENC28J60_Read_Op                         0x08000a75   Thumb Code    60  enc28j60.o(.text)
    ENC28J60_Write_Op                        0x08000ab1   Thumb Code    50  enc28j60.o(.text)
    ENC28J60_Read_Buf                        0x08000ae3   Thumb Code    50  enc28j60.o(.text)
    ENC28J60_Write_Buf                       0x08000b15   Thumb Code    44  enc28j60.o(.text)
    ENC28J60_Set_Bank                        0x08000b41   Thumb Code    48  enc28j60.o(.text)
    ENC28J60_Read                            0x08000b71   Thumb Code    20  enc28j60.o(.text)
    ENC28J60_Write                           0x08000b85   Thumb Code    24  enc28j60.o(.text)
    ENC28J60_PHY_Write                       0x08000b9d   Thumb Code    62  enc28j60.o(.text)
    ENC28J60_Init                            0x08000bdb   Thumb Code   366  enc28j60.o(.text)
    ENC28J60_Get_EREVID                      0x08000d49   Thumb Code    10  enc28j60.o(.text)
    ENC28J60_Packet_Send                     0x08000d53   Thumb Code   102  enc28j60.o(.text)
    ENC28J60_Packet_Receive                  0x08000db9   Thumb Code   208  enc28j60.o(.text)
    delay_init                               0x08000e89   Thumb Code    40  delay.o(.text)
    delay_us                                 0x08000eb1   Thumb Code    70  delay.o(.text)
    delay_ms                                 0x08000ef7   Thumb Code    70  delay.o(.text)
    NVIC_Configuration                       0x08000f4d   Thumb Code    12  sys.o(.text)
    _sys_exit                                0x08000f59   Thumb Code     6  usart.o(.text)
    fputc                                    0x08000f5f   Thumb Code    20  usart.o(.text)
    uart_init                                0x08000f73   Thumb Code   152  usart.o(.text)
    USART1_IRQHandler                        0x0800100b   Thumb Code   122  usart.o(.text)
    Reset_Handler                            0x08001099   Thumb Code     8  startup_stm32f10x_hd.o(.text)
    ADC1_2_IRQHandler                        0x080010b3   Thumb Code     0  startup_stm32f10x_hd.o(.text)
    ADC3_IRQHandler                          0x080010b3   Thumb Code     0  startup_stm32f10x_hd.o(.text)
    CAN1_RX1_IRQHandler                      0x080010b3   Thumb Code     0  startup_stm32f10x_hd.o(.text)
    CAN1_SCE_IRQHandler                      0x080010b3   Thumb Code     0  startup_stm32f10x_hd.o(.text)
    DMA1_Channel1_IRQHandler                 0x080010b3   Thumb Code     0  startup_stm32f10x_hd.o(.text)
    DMA1_Channel2_IRQHandler                 0x080010b3   Thumb Code     0  startup_stm32f10x_hd.o(.text)
    DMA1_Channel3_IRQHandler                 0x080010b3   Thumb Code     0  startup_stm32f10x_hd.o(.text)
    DMA1_Channel4_IRQHandler                 0x080010b3   Thumb Code     0  startup_stm32f10x_hd.o(.text)
    DMA1_Channel5_IRQHandler                 0x080010b3   Thumb Code     0  startup_stm32f10x_hd.o(.text)
    DMA1_Channel6_IRQHandler                 0x080010b3   Thumb Code     0  startup_stm32f10x_hd.o(.text)
    DMA1_Channel7_IRQHandler                 0x080010b3   Thumb Code     0  startup_stm32f10x_hd.o(.text)
    DMA2_Channel1_IRQHandler                 0x080010b3   Thumb Code     0  startup_stm32f10x_hd.o(.text)
    DMA2_Channel2_IRQHandler                 0x080010b3   Thumb Code     0  startup_stm32f10x_hd.o(.text)
    DMA2_Channel3_IRQHandler                 0x080010b3   Thumb Code     0  startup_stm32f10x_hd.o(.text)
    DMA2_Channel4_5_IRQHandler               0x080010b3   Thumb Code     0  startup_stm32f10x_hd.o(.text)
    EXTI0_IRQHandler                         0x080010b3   Thumb Code     0  startup_stm32f10x_hd.o(.text)
    EXTI15_10_IRQHandler                     0x080010b3   Thumb Code     0  startup_stm32f10x_hd.o(.text)
    EXTI1_IRQHandler                         0x080010b3   Thumb Code     0  startup_stm32f10x_hd.o(.text)
    EXTI2_IRQHandler                         0x080010b3   Thumb Code     0  startup_stm32f10x_hd.o(.text)
    EXTI3_IRQHandler                         0x080010b3   Thumb Code     0  startup_stm32f10x_hd.o(.text)
    EXTI4_IRQHandler                         0x080010b3   Thumb Code     0  startup_stm32f10x_hd.o(.text)
    EXTI9_5_IRQHandler                       0x080010b3   Thumb Code     0  startup_stm32f10x_hd.o(.text)
    FLASH_IRQHandler                         0x080010b3   Thumb Code     0  startup_stm32f10x_hd.o(.text)
    FSMC_IRQHandler                          0x080010b3   Thumb Code     0  startup_stm32f10x_hd.o(.text)
    I2C1_ER_IRQHandler                       0x080010b3   Thumb Code     0  startup_stm32f10x_hd.o(.text)
    I2C1_EV_IRQHandler                       0x080010b3   Thumb Code     0  startup_stm32f10x_hd.o(.text)
    I2C2_ER_IRQHandler                       0x080010b3   Thumb Code     0  startup_stm32f10x_hd.o(.text)
    I2C2_EV_IRQHandler                       0x080010b3   Thumb Code     0  startup_stm32f10x_hd.o(.text)
    PVD_IRQHandler                           0x080010b3   Thumb Code     0  startup_stm32f10x_hd.o(.text)
    RCC_IRQHandler                           0x080010b3   Thumb Code     0  startup_stm32f10x_hd.o(.text)
    RTCAlarm_IRQHandler                      0x080010b3   Thumb Code     0  startup_stm32f10x_hd.o(.text)
    RTC_IRQHandler                           0x080010b3   Thumb Code     0  startup_stm32f10x_hd.o(.text)
    SDIO_IRQHandler                          0x080010b3   Thumb Code     0  startup_stm32f10x_hd.o(.text)
    SPI1_IRQHandler                          0x080010b3   Thumb Code     0  startup_stm32f10x_hd.o(.text)
    SPI2_IRQHandler                          0x080010b3   Thumb Code     0  startup_stm32f10x_hd.o(.text)
    SPI3_IRQHandler                          0x080010b3   Thumb Code     0  startup_stm32f10x_hd.o(.text)
    TAMPER_IRQHandler                        0x080010b3   Thumb Code     0  startup_stm32f10x_hd.o(.text)
    TIM1_BRK_IRQHandler                      0x080010b3   Thumb Code     0  startup_stm32f10x_hd.o(.text)
    TIM1_CC_IRQHandler                       0x080010b3   Thumb Code     0  startup_stm32f10x_hd.o(.text)
    TIM1_TRG_COM_IRQHandler                  0x080010b3   Thumb Code     0  startup_stm32f10x_hd.o(.text)
    TIM1_UP_IRQHandler                       0x080010b3   Thumb Code     0  startup_stm32f10x_hd.o(.text)
    TIM2_IRQHandler                          0x080010b3   Thumb Code     0  startup_stm32f10x_hd.o(.text)
    TIM3_IRQHandler                          0x080010b3   Thumb Code     0  startup_stm32f10x_hd.o(.text)
    TIM4_IRQHandler                          0x080010b3   Thumb Code     0  startup_stm32f10x_hd.o(.text)
    TIM5_IRQHandler                          0x080010b3   Thumb Code     0  startup_stm32f10x_hd.o(.text)
    TIM7_IRQHandler                          0x080010b3   Thumb Code     0  startup_stm32f10x_hd.o(.text)
    TIM8_BRK_IRQHandler                      0x080010b3   Thumb Code     0  startup_stm32f10x_hd.o(.text)
    TIM8_CC_IRQHandler                       0x080010b3   Thumb Code     0  startup_stm32f10x_hd.o(.text)
    TIM8_TRG_COM_IRQHandler                  0x080010b3   Thumb Code     0  startup_stm32f10x_hd.o(.text)
    TIM8_UP_IRQHandler                       0x080010b3   Thumb Code     0  startup_stm32f10x_hd.o(.text)
    UART4_IRQHandler                         0x080010b3   Thumb Code     0  startup_stm32f10x_hd.o(.text)
    UART5_IRQHandler                         0x080010b3   Thumb Code     0  startup_stm32f10x_hd.o(.text)
    USART2_IRQHandler                        0x080010b3   Thumb Code     0  startup_stm32f10x_hd.o(.text)
    USART3_IRQHandler                        0x080010b3   Thumb Code     0  startup_stm32f10x_hd.o(.text)
    USBWakeUp_IRQHandler                     0x080010b3   Thumb Code     0  startup_stm32f10x_hd.o(.text)
    USB_HP_CAN1_TX_IRQHandler                0x080010b3   Thumb Code     0  startup_stm32f10x_hd.o(.text)
    USB_LP_CAN1_RX0_IRQHandler               0x080010b3   Thumb Code     0  startup_stm32f10x_hd.o(.text)
    WWDG_IRQHandler                          0x080010b3   Thumb Code     0  startup_stm32f10x_hd.o(.text)
    __user_initial_stackheap                 0x080010b5   Thumb Code     0  startup_stm32f10x_hd.o(.text)
    NVIC_PriorityGroupConfig                 0x080010d9   Thumb Code    10  misc.o(.text)
    NVIC_Init                                0x080010e3   Thumb Code   118  misc.o(.text)
    NVIC_SetVectorTable                      0x08001159   Thumb Code    12  misc.o(.text)
    NVIC_SystemLPConfig                      0x08001165   Thumb Code    38  misc.o(.text)
    SysTick_CLKSourceConfig                  0x0800118b   Thumb Code    40  misc.o(.text)
    GPIO_DeInit                              0x080011d1   Thumb Code   172  stm32f10x_gpio.o(.text)
    GPIO_AFIODeInit                          0x0800127d   Thumb Code    20  stm32f10x_gpio.o(.text)
    GPIO_Init                                0x08001291   Thumb Code   274  stm32f10x_gpio.o(.text)
    GPIO_StructInit                          0x080013a3   Thumb Code    16  stm32f10x_gpio.o(.text)
    GPIO_ReadInputDataBit                    0x080013b3   Thumb Code    18  stm32f10x_gpio.o(.text)
    GPIO_ReadInputData                       0x080013c5   Thumb Code     8  stm32f10x_gpio.o(.text)
    GPIO_ReadOutputDataBit                   0x080013cd   Thumb Code    18  stm32f10x_gpio.o(.text)
    GPIO_ReadOutputData                      0x080013df   Thumb Code     8  stm32f10x_gpio.o(.text)
    GPIO_SetBits                             0x080013e7   Thumb Code     4  stm32f10x_gpio.o(.text)
    GPIO_ResetBits                           0x080013eb   Thumb Code     4  stm32f10x_gpio.o(.text)
    GPIO_WriteBit                            0x080013ef   Thumb Code    10  stm32f10x_gpio.o(.text)
    GPIO_Write                               0x080013f9   Thumb Code     4  stm32f10x_gpio.o(.text)
    GPIO_PinLockConfig                       0x080013fd   Thumb Code    18  stm32f10x_gpio.o(.text)
    GPIO_EventOutputConfig                   0x0800140f   Thumb Code    26  stm32f10x_gpio.o(.text)
    GPIO_EventOutputCmd                      0x08001429   Thumb Code     6  stm32f10x_gpio.o(.text)
    GPIO_PinRemapConfig                      0x0800142f   Thumb Code   138  stm32f10x_gpio.o(.text)
    GPIO_EXTILineConfig                      0x080014b9   Thumb Code    66  stm32f10x_gpio.o(.text)
    GPIO_ETH_MediaInterfaceConfig            0x080014fb   Thumb Code     6  stm32f10x_gpio.o(.text)
    RCC_DeInit                               0x08001529   Thumb Code    64  stm32f10x_rcc.o(.text)
    RCC_HSEConfig                            0x08001569   Thumb Code    70  stm32f10x_rcc.o(.text)
    RCC_GetFlagStatus                        0x080015af   Thumb Code    56  stm32f10x_rcc.o(.text)
    RCC_WaitForHSEStartUp                    0x080015e7   Thumb Code    48  stm32f10x_rcc.o(.text)
    RCC_AdjustHSICalibrationValue            0x08001617   Thumb Code    20  stm32f10x_rcc.o(.text)
    RCC_HSICmd                               0x0800162b   Thumb Code     6  stm32f10x_rcc.o(.text)
    RCC_PLLConfig                            0x08001631   Thumb Code    24  stm32f10x_rcc.o(.text)
    RCC_PLLCmd                               0x08001649   Thumb Code     6  stm32f10x_rcc.o(.text)
    RCC_SYSCLKConfig                         0x0800164f   Thumb Code    18  stm32f10x_rcc.o(.text)
    RCC_GetSYSCLKSource                      0x08001661   Thumb Code    10  stm32f10x_rcc.o(.text)
    RCC_HCLKConfig                           0x0800166b   Thumb Code    18  stm32f10x_rcc.o(.text)
    RCC_PCLK1Config                          0x0800167d   Thumb Code    18  stm32f10x_rcc.o(.text)
    RCC_PCLK2Config                          0x0800168f   Thumb Code    20  stm32f10x_rcc.o(.text)
    RCC_ITConfig                             0x080016a3   Thumb Code    30  stm32f10x_rcc.o(.text)
    RCC_USBCLKConfig                         0x080016c1   Thumb Code     6  stm32f10x_rcc.o(.text)
    RCC_ADCCLKConfig                         0x080016c7   Thumb Code    18  stm32f10x_rcc.o(.text)
    RCC_LSEConfig                            0x080016d9   Thumb Code    44  stm32f10x_rcc.o(.text)
    RCC_LSICmd                               0x08001705   Thumb Code     6  stm32f10x_rcc.o(.text)
    RCC_RTCCLKConfig                         0x0800170b   Thumb Code    12  stm32f10x_rcc.o(.text)
    RCC_RTCCLKCmd                            0x08001717   Thumb Code     6  stm32f10x_rcc.o(.text)
    RCC_GetClocksFreq                        0x0800171d   Thumb Code   192  stm32f10x_rcc.o(.text)
    RCC_AHBPeriphClockCmd                    0x080017dd   Thumb Code    26  stm32f10x_rcc.o(.text)
    RCC_APB2PeriphClockCmd                   0x080017f7   Thumb Code    26  stm32f10x_rcc.o(.text)
    RCC_APB1PeriphClockCmd                   0x08001811   Thumb Code    26  stm32f10x_rcc.o(.text)
    RCC_APB2PeriphResetCmd                   0x0800182b   Thumb Code    26  stm32f10x_rcc.o(.text)
    RCC_APB1PeriphResetCmd                   0x08001845   Thumb Code    26  stm32f10x_rcc.o(.text)
    RCC_BackupResetCmd                       0x0800185f   Thumb Code     6  stm32f10x_rcc.o(.text)
    RCC_ClockSecuritySystemCmd               0x08001865   Thumb Code     6  stm32f10x_rcc.o(.text)
    RCC_MCOConfig                            0x0800186b   Thumb Code     6  stm32f10x_rcc.o(.text)
    RCC_ClearFlag                            0x08001871   Thumb Code    14  stm32f10x_rcc.o(.text)
    RCC_GetITStatus                          0x0800187f   Thumb Code    20  stm32f10x_rcc.o(.text)
    RCC_ClearITPendingBit                    0x08001893   Thumb Code     6  stm32f10x_rcc.o(.text)
    USART_DeInit                             0x080018cd   Thumb Code   134  stm32f10x_usart.o(.text)
    USART_Init                               0x08001953   Thumb Code   210  stm32f10x_usart.o(.text)
    USART_StructInit                         0x08001a25   Thumb Code    24  stm32f10x_usart.o(.text)
    USART_ClockInit                          0x08001a3d   Thumb Code    34  stm32f10x_usart.o(.text)
    USART_ClockStructInit                    0x08001a5f   Thumb Code    12  stm32f10x_usart.o(.text)
    USART_Cmd                                0x08001a6b   Thumb Code    24  stm32f10x_usart.o(.text)
    USART_ITConfig                           0x08001a83   Thumb Code    74  stm32f10x_usart.o(.text)
    USART_DMACmd                             0x08001acd   Thumb Code    24  stm32f10x_usart.o(.text)
    USART_SetAddress                         0x08001ae5   Thumb Code    18  stm32f10x_usart.o(.text)
    USART_WakeUpConfig                       0x08001af7   Thumb Code    18  stm32f10x_usart.o(.text)
    USART_ReceiverWakeUpCmd                  0x08001b09   Thumb Code    24  stm32f10x_usart.o(.text)
    USART_LINBreakDetectLengthConfig         0x08001b21   Thumb Code    18  stm32f10x_usart.o(.text)
    USART_LINCmd                             0x08001b33   Thumb Code    24  stm32f10x_usart.o(.text)
    USART_SendData                           0x08001b4b   Thumb Code     8  stm32f10x_usart.o(.text)
    USART_ReceiveData                        0x08001b53   Thumb Code    10  stm32f10x_usart.o(.text)
    USART_SendBreak                          0x08001b5d   Thumb Code    10  stm32f10x_usart.o(.text)
    USART_SetGuardTime                       0x08001b67   Thumb Code    16  stm32f10x_usart.o(.text)
    USART_SetPrescaler                       0x08001b77   Thumb Code    16  stm32f10x_usart.o(.text)
    USART_SmartCardCmd                       0x08001b87   Thumb Code    24  stm32f10x_usart.o(.text)
    USART_SmartCardNACKCmd                   0x08001b9f   Thumb Code    24  stm32f10x_usart.o(.text)
    USART_HalfDuplexCmd                      0x08001bb7   Thumb Code    24  stm32f10x_usart.o(.text)
    USART_OverSampling8Cmd                   0x08001bcf   Thumb Code    22  stm32f10x_usart.o(.text)
    USART_OneBitMethodCmd                    0x08001be5   Thumb Code    24  stm32f10x_usart.o(.text)
    USART_IrDAConfig                         0x08001bfd   Thumb Code    18  stm32f10x_usart.o(.text)
    USART_IrDACmd                            0x08001c0f   Thumb Code    24  stm32f10x_usart.o(.text)
    USART_GetFlagStatus                      0x08001c27   Thumb Code    26  stm32f10x_usart.o(.text)
    USART_ClearFlag                          0x08001c41   Thumb Code    18  stm32f10x_usart.o(.text)
    USART_GetITStatus                        0x08001c53   Thumb Code    84  stm32f10x_usart.o(.text)
    USART_ClearITPendingBit                  0x08001ca7   Thumb Code    50  stm32f10x_usart.o(.text)
    TIM_DeInit                               0x08001cd9   Thumb Code   424  stm32f10x_tim.o(.text)
    TIM_TimeBaseInit                         0x08001e81   Thumb Code   122  stm32f10x_tim.o(.text)
    TIM_OC1Init                              0x08001efb   Thumb Code   132  stm32f10x_tim.o(.text)
    TIM_OC2Init                              0x08001f7f   Thumb Code   146  stm32f10x_tim.o(.text)
    TIM_OC3Init                              0x08002011   Thumb Code   142  stm32f10x_tim.o(.text)
    TIM_OC4Init                              0x0800209f   Thumb Code   172  stm32f10x_tim.o(.text)
    TIM_SetIC4Prescaler                      0x0800214b   Thumb Code    22  stm32f10x_tim.o(.text)
    TIM_SetIC3Prescaler                      0x080021d7   Thumb Code    18  stm32f10x_tim.o(.text)
    TIM_SetIC2Prescaler                      0x0800225b   Thumb Code    22  stm32f10x_tim.o(.text)
    TIM_SetIC1Prescaler                      0x080022e7   Thumb Code    18  stm32f10x_tim.o(.text)
    TIM_ICInit                               0x08002363   Thumb Code   150  stm32f10x_tim.o(.text)
    TIM_PWMIConfig                           0x080023f9   Thumb Code   124  stm32f10x_tim.o(.text)
    TIM_BDTRConfig                           0x08002475   Thumb Code    32  stm32f10x_tim.o(.text)
    TIM_TimeBaseStructInit                   0x08002495   Thumb Code    18  stm32f10x_tim.o(.text)
    TIM_OCStructInit                         0x080024a7   Thumb Code    20  stm32f10x_tim.o(.text)
    TIM_ICStructInit                         0x080024bb   Thumb Code    18  stm32f10x_tim.o(.text)
    TIM_BDTRStructInit                       0x080024cd   Thumb Code    18  stm32f10x_tim.o(.text)
    TIM_Cmd                                  0x080024df   Thumb Code    24  stm32f10x_tim.o(.text)
    TIM_CtrlPWMOutputs                       0x080024f7   Thumb Code    52  stm32f10x_tim.o(.text)
    TIM_ITConfig                             0x0800252b   Thumb Code    24  stm32f10x_tim.o(.text)
    TIM_GenerateEvent                        0x08002543   Thumb Code     4  stm32f10x_tim.o(.text)
    TIM_DMAConfig                            0x08002547   Thumb Code    10  stm32f10x_tim.o(.text)
    TIM_DMACmd                               0x08002551   Thumb Code    24  stm32f10x_tim.o(.text)
    TIM_InternalClockConfig                  0x08002569   Thumb Code    12  stm32f10x_tim.o(.text)
    TIM_SelectInputTrigger                   0x08002575   Thumb Code    18  stm32f10x_tim.o(.text)
    TIM_ITRxExternalClockConfig              0x08002587   Thumb Code    24  stm32f10x_tim.o(.text)
    TIM_TIxExternalClockConfig               0x0800259f   Thumb Code    62  stm32f10x_tim.o(.text)
    TIM_ETRConfig                            0x080025dd   Thumb Code    24  stm32f10x_tim.o(.text)
    TIM_ETRClockMode1Config                  0x080025f5   Thumb Code    54  stm32f10x_tim.o(.text)
    TIM_ETRClockMode2Config                  0x0800262b   Thumb Code    32  stm32f10x_tim.o(.text)
    TIM_PrescalerConfig                      0x0800264b   Thumb Code     6  stm32f10x_tim.o(.text)
    TIM_CounterModeConfig                    0x08002651   Thumb Code    18  stm32f10x_tim.o(.text)
    TIM_EncoderInterfaceConfig               0x08002663   Thumb Code    62  stm32f10x_tim.o(.text)
    TIM_ForcedOC1Config                      0x080026a1   Thumb Code    18  stm32f10x_tim.o(.text)
    TIM_ForcedOC2Config                      0x080026b3   Thumb Code    22  stm32f10x_tim.o(.text)
    TIM_ForcedOC3Config                      0x080026c9   Thumb Code    18  stm32f10x_tim.o(.text)
    TIM_ForcedOC4Config                      0x080026db   Thumb Code    22  stm32f10x_tim.o(.text)
    TIM_ARRPreloadConfig                     0x080026f1   Thumb Code    24  stm32f10x_tim.o(.text)
    TIM_SelectCOM                            0x08002709   Thumb Code    24  stm32f10x_tim.o(.text)
    TIM_SelectCCDMA                          0x08002721   Thumb Code    24  stm32f10x_tim.o(.text)
    TIM_CCPreloadControl                     0x08002739   Thumb Code    24  stm32f10x_tim.o(.text)
    TIM_OC1PreloadConfig                     0x08002751   Thumb Code    18  stm32f10x_tim.o(.text)
    TIM_OC2PreloadConfig                     0x08002763   Thumb Code    22  stm32f10x_tim.o(.text)
    TIM_OC3PreloadConfig                     0x08002779   Thumb Code    18  stm32f10x_tim.o(.text)
    TIM_OC4PreloadConfig                     0x0800278b   Thumb Code    22  stm32f10x_tim.o(.text)
    TIM_OC1FastConfig                        0x080027a1   Thumb Code    18  stm32f10x_tim.o(.text)
    TIM_OC2FastConfig                        0x080027b3   Thumb Code    22  stm32f10x_tim.o(.text)
    TIM_OC3FastConfig                        0x080027c9   Thumb Code    18  stm32f10x_tim.o(.text)
    TIM_OC4FastConfig                        0x080027db   Thumb Code    22  stm32f10x_tim.o(.text)
    TIM_ClearOC1Ref                          0x080027f1   Thumb Code    18  stm32f10x_tim.o(.text)
    TIM_ClearOC2Ref                          0x08002803   Thumb Code    20  stm32f10x_tim.o(.text)
    TIM_ClearOC3Ref                          0x08002817   Thumb Code    18  stm32f10x_tim.o(.text)
    TIM_ClearOC4Ref                          0x08002829   Thumb Code    20  stm32f10x_tim.o(.text)
    TIM_OC1PolarityConfig                    0x0800283d   Thumb Code    18  stm32f10x_tim.o(.text)
    TIM_OC1NPolarityConfig                   0x0800284f   Thumb Code    18  stm32f10x_tim.o(.text)
    TIM_OC2PolarityConfig                    0x08002861   Thumb Code    22  stm32f10x_tim.o(.text)
    TIM_OC2NPolarityConfig                   0x08002877   Thumb Code    22  stm32f10x_tim.o(.text)
    TIM_OC3PolarityConfig                    0x0800288d   Thumb Code    22  stm32f10x_tim.o(.text)
    TIM_OC3NPolarityConfig                   0x080028a3   Thumb Code    22  stm32f10x_tim.o(.text)
    TIM_OC4PolarityConfig                    0x080028b9   Thumb Code    22  stm32f10x_tim.o(.text)
    TIM_CCxCmd                               0x080028cf   Thumb Code    34  stm32f10x_tim.o(.text)
    TIM_CCxNCmd                              0x080028f1   Thumb Code    34  stm32f10x_tim.o(.text)
    TIM_SelectOCxM                           0x08002913   Thumb Code    82  stm32f10x_tim.o(.text)
    TIM_UpdateDisableConfig                  0x08002965   Thumb Code    24  stm32f10x_tim.o(.text)
    TIM_UpdateRequestConfig                  0x0800297d   Thumb Code    24  stm32f10x_tim.o(.text)
    TIM_SelectHallSensor                     0x08002995   Thumb Code    24  stm32f10x_tim.o(.text)
    TIM_SelectOnePulseMode                   0x080029ad   Thumb Code    18  stm32f10x_tim.o(.text)
    TIM_SelectOutputTrigger                  0x080029bf   Thumb Code    18  stm32f10x_tim.o(.text)
    TIM_SelectSlaveMode                      0x080029d1   Thumb Code    18  stm32f10x_tim.o(.text)
    TIM_SelectMasterSlaveMode                0x080029e3   Thumb Code    18  stm32f10x_tim.o(.text)
    TIM_SetCounter                           0x080029f5   Thumb Code     4  stm32f10x_tim.o(.text)
    TIM_SetAutoreload                        0x080029f9   Thumb Code     4  stm32f10x_tim.o(.text)
    TIM_SetCompare1                          0x080029fd   Thumb Code     4  stm32f10x_tim.o(.text)
    TIM_SetCompare2                          0x08002a01   Thumb Code     4  stm32f10x_tim.o(.text)
    TIM_SetCompare3                          0x08002a05   Thumb Code     4  stm32f10x_tim.o(.text)
    TIM_SetCompare4                          0x08002a09   Thumb Code     6  stm32f10x_tim.o(.text)
    TIM_SetClockDivision                     0x08002a0f   Thumb Code    18  stm32f10x_tim.o(.text)
    TIM_GetCapture1                          0x08002a21   Thumb Code     6  stm32f10x_tim.o(.text)
    TIM_GetCapture2                          0x08002a27   Thumb Code     6  stm32f10x_tim.o(.text)
    TIM_GetCapture3                          0x08002a2d   Thumb Code     6  stm32f10x_tim.o(.text)
    TIM_GetCapture4                          0x08002a33   Thumb Code     8  stm32f10x_tim.o(.text)
    TIM_GetCounter                           0x08002a3b   Thumb Code     6  stm32f10x_tim.o(.text)
    TIM_GetPrescaler                         0x08002a41   Thumb Code     6  stm32f10x_tim.o(.text)
    TIM_GetFlagStatus                        0x08002a47   Thumb Code    18  stm32f10x_tim.o(.text)
    TIM_ClearFlag                            0x08002a59   Thumb Code     6  stm32f10x_tim.o(.text)
    TIM_GetITStatus                          0x08002a5f   Thumb Code    34  stm32f10x_tim.o(.text)
    TIM_ClearITPendingBit                    0x08002a81   Thumb Code     6  stm32f10x_tim.o(.text)
    SPI_I2S_DeInit                           0x08002a89   Thumb Code    76  stm32f10x_spi.o(.text)
    SPI_Init                                 0x08002ad5   Thumb Code    60  stm32f10x_spi.o(.text)
    I2S_Init                                 0x08002b11   Thumb Code   222  stm32f10x_spi.o(.text)
    SPI_StructInit                           0x08002bef   Thumb Code    24  stm32f10x_spi.o(.text)
    I2S_StructInit                           0x08002c07   Thumb Code    20  stm32f10x_spi.o(.text)
    SPI_Cmd                                  0x08002c1b   Thumb Code    24  stm32f10x_spi.o(.text)
    I2S_Cmd                                  0x08002c33   Thumb Code    24  stm32f10x_spi.o(.text)
    SPI_I2S_ITConfig                         0x08002c4b   Thumb Code    36  stm32f10x_spi.o(.text)
    SPI_I2S_DMACmd                           0x08002c6f   Thumb Code    24  stm32f10x_spi.o(.text)
    SPI_I2S_SendData                         0x08002c87   Thumb Code     4  stm32f10x_spi.o(.text)
    SPI_I2S_ReceiveData                      0x08002c8b   Thumb Code     6  stm32f10x_spi.o(.text)
    SPI_NSSInternalSoftwareConfig            0x08002c91   Thumb Code    30  stm32f10x_spi.o(.text)
    SPI_SSOutputCmd                          0x08002caf   Thumb Code    24  stm32f10x_spi.o(.text)
    SPI_DataSizeConfig                       0x08002cc7   Thumb Code    18  stm32f10x_spi.o(.text)
    SPI_TransmitCRC                          0x08002cd9   Thumb Code    10  stm32f10x_spi.o(.text)
    SPI_CalculateCRC                         0x08002ce3   Thumb Code    24  stm32f10x_spi.o(.text)
    SPI_GetCRC                               0x08002cfb   Thumb Code    16  stm32f10x_spi.o(.text)
    SPI_GetCRCPolynomial                     0x08002d0b   Thumb Code     6  stm32f10x_spi.o(.text)
    SPI_BiDirectionalLineConfig              0x08002d11   Thumb Code    28  stm32f10x_spi.o(.text)
    SPI_I2S_GetFlagStatus                    0x08002d2d   Thumb Code    18  stm32f10x_spi.o(.text)
    SPI_I2S_ClearFlag                        0x08002d3f   Thumb Code     6  stm32f10x_spi.o(.text)
    SPI_I2S_GetITStatus                      0x08002d45   Thumb Code    52  stm32f10x_spi.o(.text)
    SPI_I2S_ClearITPendingBit                0x08002d79   Thumb Code    20  stm32f10x_spi.o(.text)
    FLASH_SetLatency                         0x08002d99   Thumb Code    18  stm32f10x_flash.o(.text)
    FLASH_HalfCycleAccessCmd                 0x08002dab   Thumb Code    22  stm32f10x_flash.o(.text)
    FLASH_PrefetchBufferCmd                  0x08002dc1   Thumb Code    22  stm32f10x_flash.o(.text)
    FLASH_Unlock                             0x08002dd7   Thumb Code    12  stm32f10x_flash.o(.text)
    FLASH_UnlockBank1                        0x08002de3   Thumb Code    12  stm32f10x_flash.o(.text)
    FLASH_Lock                               0x08002def   Thumb Code    14  stm32f10x_flash.o(.text)
    FLASH_LockBank1                          0x08002dfd   Thumb Code    14  stm32f10x_flash.o(.text)
    FLASH_GetBank1Status                     0x08002e0b   Thumb Code    50  stm32f10x_flash.o(.text)
    FLASH_WaitForLastOperation               0x08002e3d   Thumb Code    38  stm32f10x_flash.o(.text)
    FLASH_ErasePage                          0x08002e63   Thumb Code    72  stm32f10x_flash.o(.text)
    FLASH_EraseAllPages                      0x08002eab   Thumb Code    68  stm32f10x_flash.o(.text)
    FLASH_WaitForLastBank1Operation          0x08002eef   Thumb Code    38  stm32f10x_flash.o(.text)
    FLASH_EraseAllBank1Pages                 0x08002f15   Thumb Code    68  stm32f10x_flash.o(.text)
    FLASH_GetReadOutProtectionStatus         0x08002f59   Thumb Code    20  stm32f10x_flash.o(.text)
    FLASH_EraseOptionBytes                   0x08002f6d   Thumb Code   152  stm32f10x_flash.o(.text)
    FLASH_ProgramWord                        0x08003005   Thumb Code    96  stm32f10x_flash.o(.text)
    FLASH_ProgramHalfWord                    0x08003065   Thumb Code    60  stm32f10x_flash.o(.text)
    FLASH_ProgramOptionByteData              0x080030a1   Thumb Code    72  stm32f10x_flash.o(.text)
    FLASH_EnableWriteProtection              0x080030e9   Thumb Code   208  stm32f10x_flash.o(.text)
    FLASH_ReadOutProtection                  0x080031b9   Thumb Code   156  stm32f10x_flash.o(.text)
    FLASH_UserOptionByteConfig               0x08003255   Thumb Code    88  stm32f10x_flash.o(.text)
    FLASH_GetUserOptionByte                  0x080032ad   Thumb Code     8  stm32f10x_flash.o(.text)
    FLASH_GetWriteProtectionOptionByte       0x080032b5   Thumb Code     6  stm32f10x_flash.o(.text)
    FLASH_GetPrefetchBufferStatus            0x080032bb   Thumb Code    20  stm32f10x_flash.o(.text)
    FLASH_ITConfig                           0x080032cf   Thumb Code    26  stm32f10x_flash.o(.text)
    FLASH_GetFlagStatus                      0x080032e9   Thumb Code    42  stm32f10x_flash.o(.text)
    FLASH_ClearFlag                          0x08003313   Thumb Code     6  stm32f10x_flash.o(.text)
    FLASH_GetStatus                          0x08003319   Thumb Code    50  stm32f10x_flash.o(.text)
    timer_set                                0x08003361   Thumb Code    16  timer.o(.text)
    timer_reset                              0x08003371   Thumb Code    10  timer.o(.text)
    timer_restart                            0x0800337b   Thumb Code    12  timer.o(.text)
    timer_expired                            0x08003387   Thumb Code    26  timer.o(.text)
    uip_setipid                              0x080033a1   Thumb Code     6  uip.o(.text)
    uip_add32                                0x080033a7   Thumb Code   106  uip.o(.text)
    htons                                    0x08003457   Thumb Code    12  uip.o(.text)
    uip_chksum                               0x08003463   Thumb Code    24  uip.o(.text)
    uip_ipchksum                             0x0800347b   Thumb Code    32  uip.o(.text)
    uip_tcpchksum                            0x080034e1   Thumb Code    10  uip.o(.text)
    uip_udpchksum                            0x080034eb   Thumb Code    10  uip.o(.text)
    uip_init                                 0x080034f5   Thumb Code    92  uip.o(.text)
    uip_connect                              0x08003551   Thumb Code   254  uip.o(.text)
    uip_unlisten                             0x0800364f   Thumb Code    58  uip.o(.text)
    uip_listen                               0x08003689   Thumb Code    54  uip.o(.text)
    uip_process                              0x080036f9   Thumb Code  3990  uip.o(.text)
    uip_send                                 0x0800468f   Thumb Code    38  uip.o(.text)
    uip_arp_init                             0x080046d5   Thumb Code    46  uip_arp.o(.text)
    uip_arp_timer                            0x08004703   Thumb Code    76  uip_arp.o(.text)
    uip_arp_arpin                            0x0800485f   Thumb Code   216  uip_arp.o(.text)
    uip_arp_out                              0x08004937   Thumb Code   366  uip_arp.o(.text)
    clock_time                               0x08004ae1   Thumb Code     6  clock-arch.o(.text)
    tapdev_init                              0x08004aed   Thumb Code    46  tapdev.o(.text)
    tapdev_read                              0x08004b1b   Thumb Code    16  tapdev.o(.text)
    tapdev_send                              0x08004b2b   Thumb Code    14  tapdev.o(.text)
    tcp_client_senddata                      0x08004b49   Thumb Code    26  tcp_client_demo.o(.text)
    tcp_client_acked                         0x08004b63   Thumb Code    22  tcp_client_demo.o(.text)
    tcp_client_connected                     0x08004b79   Thumb Code    48  tcp_client_demo.o(.text)
    tcp_client_reconnect                     0x08004ba9   Thumb Code    42  tcp_client_demo.o(.text)
    tcp_client_closed                        0x08004bd3   Thumb Code    26  tcp_client_demo.o(.text)
    tcp_client_timedout                      0x08004bed   Thumb Code    22  tcp_client_demo.o(.text)
    tcp_client_aborted                       0x08004c03   Thumb Code    26  tcp_client_demo.o(.text)
    tcp_client_demo_appcall                  0x08004c1d   Thumb Code   286  tcp_client_demo.o(.text)
    tcp_demo_appcall                         0x08004dfd   Thumb Code    34  tcp_demo.o(.text)
    uip_log                                  0x08004e1f   Thumb Code    14  tcp_demo.o(.text)
    iap_write_appbin                         0x08004e41   Thumb Code    98  iap.o(.text)
    iap_load_app                             0x08004ea3   Thumb Code    40  iap.o(.text)
    __use_no_semihosting                     0x08004ed9   Thumb Code     2  use_no_semi_2.o(.text)
    __2printf                                0x08004edd   Thumb Code    20  noretval__2printf.o(.text)
    __2sprintf                               0x08004ef5   Thumb Code    34  noretval__2sprintf.o(.text)
    __printf                                 0x08004f1d   Thumb Code   106  __printf.o(.text)
    _printf_str                              0x08004f87   Thumb Code    82  _printf_str.o(.text)
    _printf_int_dec                          0x08004fd9   Thumb Code    98  _printf_dec.o(.text)
    strcpy                                   0x0800504d   Thumb Code    72  strcpy.o(.text)
    strlen                                   0x08005095   Thumb Code    62  strlen.o(.text)
    __aeabi_memcpy                           0x080050d3   Thumb Code     0  rt_memcpy_v6.o(.text)
    __rt_memcpy                              0x080050d3   Thumb Code   138  rt_memcpy_v6.o(.text)
    _memcpy_lastbytes                        0x08005139   Thumb Code     0  rt_memcpy_v6.o(.text)
    __aeabi_memset                           0x0800515d   Thumb Code    16  aeabi_memset.o(.text)
    strcmp                                   0x0800516d   Thumb Code   128  strcmpv7m.o(.text)
    __use_two_region_memory                  0x080051ed   Thumb Code     2  heapauxi.o(.text)
    __rt_heap_escrow$2region                 0x080051ef   Thumb Code     2  heapauxi.o(.text)
    __rt_heap_expand$2region                 0x080051f1   Thumb Code     2  heapauxi.o(.text)
    __I$use$semihosting                      0x080051f3   Thumb Code     0  use_no_semi.o(.text)
    __use_no_semihosting_swi                 0x080051f3   Thumb Code     2  use_no_semi.o(.text)
    _printf_int_common                       0x080051f5   Thumb Code   180  _printf_intcommon.o(.text)
    _printf_char_common                      0x080052b3   Thumb Code    32  _printf_char_common.o(.text)
    _sputc                                   0x080052d9   Thumb Code    10  _sputc.o(.text)
    _printf_cs_common                        0x080052e3   Thumb Code    20  _printf_char.o(.text)
    _printf_char                             0x080052f7   Thumb Code    16  _printf_char.o(.text)
    _printf_string                           0x08005307   Thumb Code     8  _printf_char.o(.text)
    _printf_char_file                        0x08005311   Thumb Code    32  _printf_char_file.o(.text)
    __aeabi_memcpy4                          0x08005335   Thumb Code     0  rt_memcpy_w.o(.text)
    __aeabi_memcpy8                          0x08005335   Thumb Code     0  rt_memcpy_w.o(.text)
    __rt_memcpy_w                            0x08005335   Thumb Code   100  rt_memcpy_w.o(.text)
    _memcpy_lastbytes_aligned                0x0800537d   Thumb Code     0  rt_memcpy_w.o(.text)
    __aeabi_memclr                           0x08005399   Thumb Code     0  rt_memclr.o(.text)
    __rt_memclr                              0x08005399   Thumb Code    68  rt_memclr.o(.text)
    _memset                                  0x0800539d   Thumb Code     0  rt_memclr.o(.text)
    __rt_udiv10                              0x080053dd   Thumb Code    16  rtudiv10.o(.text)
    ferror                                   0x080053ed   Thumb Code     8  ferror.o(.text)
    __aeabi_memclr4                          0x080053f5   Thumb Code     0  rt_memclr_w.o(.text)
    __aeabi_memclr8                          0x080053f5   Thumb Code     0  rt_memclr_w.o(.text)
    __rt_memclr_w                            0x080053f5   Thumb Code    78  rt_memclr_w.o(.text)
    _memset_w                                0x080053f9   Thumb Code     0  rt_memclr_w.o(.text)
    __user_setup_stackheap                   0x08005443   Thumb Code    74  sys_stackheap_outer.o(.text)
    exit                                     0x0800548d   Thumb Code    12  exit.o(.text)
    __user_libspace                          0x08005499   Thumb Code     8  libspace.o(.text)
    __user_perproc_libspace                  0x08005499   Thumb Code     0  libspace.o(.text)
    __user_perthread_libspace                0x08005499   Thumb Code     0  libspace.o(.text)
    __rt_fp_status_addr                      0x080054a1   Thumb Code    12  rt_fp_status_addr_intlibspace.o(.text)
    _fp_init                                 0x080054ad   Thumb Code    14  fpinit.o(x$fpl$fpinit)
    __fplib_config_pureend_doubles           0x080054b9   Thumb Code     0  fpinit.o(x$fpl$fpinit)
    mymac                                    0x080054c8   Data           6  tapdev.o(.constdata)
    Region$$Table$$Base                      0x080054d0   Number         0  anon$$obj.o(Region$$Table)
    Region$$Table$$Limit                     0x080054f0   Number         0  anon$$obj.o(Region$$Table)
    run_flag                                 0x20000000   Data           1  main.o(.data)
    over_flag                                0x20000004   Data           1  eth0.o(.data)
    tcp_client_tsta                          0x20000005   Data           1  eth0.o(.data)
    Update_flag                              0x20000006   Data           1  eth0.o(.data)
    ready_flag                               0x20000007   Data           1  eth0.o(.data)
    SystemCoreClock                          0x2000001c   Data           4  system_stm32f10x.o(.data)
    AHBPrescTable                            0x20000020   Data          16  system_stm32f10x.o(.data)
    uip_timer                                0x20000030   Data           4  timerx.o(.data)
    USART_RX_STA                             0x20000040   Data           2  usart.o(.data)
    __stdout                                 0x20000044   Data           4  usart.o(.data)
    uip_ethaddr                              0x2000005c   Data           6  uip.o(.data)
    uip_hostaddr                             0x20000062   Data           4  uip.o(.data)
    uip_draddr                               0x20000066   Data           4  uip.o(.data)
    uip_netmask                              0x2000006a   Data           4  uip.o(.data)
    uip_appdata                              0x20000070   Data           4  uip.o(.data)
    uip_sappdata                             0x20000074   Data           4  uip.o(.data)
    uip_len                                  0x20000078   Data           2  uip.o(.data)
    uip_slen                                 0x2000007a   Data           2  uip.o(.data)
    uip_flags                                0x2000007c   Data           1  uip.o(.data)
    uip_conn                                 0x20000080   Data           4  uip.o(.data)
    uip_acc32                                0x2000008c   Data           4  uip.o(.data)
    IAP_num                                  0x2000009c   Data           2  tcp_client_demo.o(.data)
    tcp_client_sta                           0x2000009e   Data           1  tcp_client_demo.o(.data)
    jump2app                                 0x200000a0   Data           4  iap.o(.data)
    STMFLASH_BUF                             0x200000a4   Data        2048  stmflash.o(.bss)
    USART_RX_BUF                             0x200008a4   Data         200  usart.o(.bss)
    tcp_client_databuf                       0x200009cc   Data        1500  tcp_client_demo.o(.bss)
    IAP_pro                                  0x20001000   Data       30720  eth0.o(.ARM.__AT_0x20001000)
    uip_buf                                  0x20008800   Data        4098  uip.o(.bss)
    uip_conns                                0x20009804   Data        1600  uip.o(.bss)
    uip_listenports                          0x20009e44   Data          80  uip.o(.bss)
    uip_stat                                 0x20009e94   Data          44  uip.o(.bss)
    iapbuf                                   0x20009ec0   Data        2048  iap.o(.bss)
    __libspace_start                         0x2000a6c0   Data          96  libspace.o(.bss)
    __temporary_stack_top$libspace           0x2000a720   Data           0  libspace.o(.bss)



==============================================================================

Memory Map of the image

  Image Entry point : 0x08000131

  Load Region LR_IROM1 (Base: 0x08000000, Size: 0x00005594, Max: 0x00080000, ABSOLUTE)

    Execution Region ER_IROM1 (Base: 0x08000000, Size: 0x000054f0, Max: 0x00080000, ABSOLUTE)

    Base Addr    Size         Type   Attr      Idx    E Section Name        Object

    0x08000000   0x00000130   Data   RO          386    RESET               startup_stm32f10x_hd.o
    0x08000130   0x00000008   Code   RO          826  * !!!main             c_w.l(__main.o)(c_w.l)
    0x08000138   0x00000034   Code   RO         1011    !!!scatter          c_w.l(__scatter.o)(c_w.l)
    0x0800016c   0x0000001a   Code   RO         1013    !!handler_copy      c_w.l(__scatter_copy.o)(c_w.l)
    0x08000186   0x00000002   PAD
    0x08000188   0x0000001c   Code   RO         1015    !!handler_zi        c_w.l(__scatter_zi.o)(c_w.l)
    0x080001a4   0x00000000   Code   RO          813    .ARM.Collect$$_printf_percent$$00000000  c_w.l(_printf_percent.o)(c_w.l)
    0x080001a4   0x00000006   Code   RO          812    .ARM.Collect$$_printf_percent$$00000009  c_w.l(_printf_d.o)(c_w.l)
    0x080001aa   0x00000006   Code   RO          811    .ARM.Collect$$_printf_percent$$00000014  c_w.l(_printf_s.o)(c_w.l)
    0x080001b0   0x00000004   Code   RO          842    .ARM.Collect$$_printf_percent$$00000017  c_w.l(_printf_percent_end.o)(c_w.l)
    0x080001b4   0x00000006   Code   RO          885    .ARM.Collect$$libinit$$00000000  c_w.l(libinit.o)(c_w.l)
    0x080001ba   0x00000000   Code   RO          893    .ARM.Collect$$libinit$$00000006  c_w.l(libinit2.o)(c_w.l)
    0x080001ba   0x00000000   Code   RO          895    .ARM.Collect$$libinit$$00000008  c_w.l(libinit2.o)(c_w.l)
    0x080001ba   0x00000000   Code   RO          897    .ARM.Collect$$libinit$$0000000A  c_w.l(libinit2.o)(c_w.l)
    0x080001ba   0x00000000   Code   RO          900    .ARM.Collect$$libinit$$0000000D  c_w.l(libinit2.o)(c_w.l)
    0x080001ba   0x00000000   Code   RO          902    .ARM.Collect$$libinit$$0000000F  c_w.l(libinit2.o)(c_w.l)
    0x080001ba   0x00000000   Code   RO          904    .ARM.Collect$$libinit$$00000011  c_w.l(libinit2.o)(c_w.l)
    0x080001ba   0x00000000   Code   RO          906    .ARM.Collect$$libinit$$00000013  c_w.l(libinit2.o)(c_w.l)
    0x080001ba   0x00000000   Code   RO          908    .ARM.Collect$$libinit$$00000015  c_w.l(libinit2.o)(c_w.l)
    0x080001ba   0x00000000   Code   RO          910    .ARM.Collect$$libinit$$00000017  c_w.l(libinit2.o)(c_w.l)
    0x080001ba   0x00000000   Code   RO          912    .ARM.Collect$$libinit$$00000019  c_w.l(libinit2.o)(c_w.l)
    0x080001ba   0x00000000   Code   RO          914    .ARM.Collect$$libinit$$0000001B  c_w.l(libinit2.o)(c_w.l)
    0x080001ba   0x00000000   Code   RO          916    .ARM.Collect$$libinit$$0000001D  c_w.l(libinit2.o)(c_w.l)
    0x080001ba   0x00000000   Code   RO          918    .ARM.Collect$$libinit$$0000001F  c_w.l(libinit2.o)(c_w.l)
    0x080001ba   0x00000000   Code   RO          920    .ARM.Collect$$libinit$$00000021  c_w.l(libinit2.o)(c_w.l)
    0x080001ba   0x00000000   Code   RO          924    .ARM.Collect$$libinit$$00000028  c_w.l(libinit2.o)(c_w.l)
    0x080001ba   0x00000000   Code   RO          926    .ARM.Collect$$libinit$$0000002A  c_w.l(libinit2.o)(c_w.l)
    0x080001ba   0x00000000   Code   RO          928    .ARM.Collect$$libinit$$0000002C  c_w.l(libinit2.o)(c_w.l)
    0x080001ba   0x00000000   Code   RO          930    .ARM.Collect$$libinit$$0000002E  c_w.l(libinit2.o)(c_w.l)
    0x080001ba   0x00000002   Code   RO          931    .ARM.Collect$$libinit$$0000002F  c_w.l(libinit2.o)(c_w.l)
    0x080001bc   0x00000002   Code   RO          955    .ARM.Collect$$libshutdown$$00000000  c_w.l(libshutdown.o)(c_w.l)
    0x080001be   0x00000000   Code   RO          966    .ARM.Collect$$libshutdown$$00000003  c_w.l(libshutdown2.o)(c_w.l)
    0x080001be   0x00000000   Code   RO          969    .ARM.Collect$$libshutdown$$00000006  c_w.l(libshutdown2.o)(c_w.l)
    0x080001be   0x00000000   Code   RO          972    .ARM.Collect$$libshutdown$$00000009  c_w.l(libshutdown2.o)(c_w.l)
    0x080001be   0x00000000   Code   RO          974    .ARM.Collect$$libshutdown$$0000000B  c_w.l(libshutdown2.o)(c_w.l)
    0x080001be   0x00000000   Code   RO          977    .ARM.Collect$$libshutdown$$0000000E  c_w.l(libshutdown2.o)(c_w.l)
    0x080001be   0x00000002   Code   RO          978    .ARM.Collect$$libshutdown$$0000000F  c_w.l(libshutdown2.o)(c_w.l)
    0x080001c0   0x00000000   Code   RO          830    .ARM.Collect$$rtentry$$00000000  c_w.l(rtentry.o)(c_w.l)
    0x080001c0   0x00000000   Code   RO          850    .ARM.Collect$$rtentry$$00000002  c_w.l(rtentry2.o)(c_w.l)
    0x080001c0   0x00000006   Code   RO          865    .ARM.Collect$$rtentry$$00000004  c_w.l(rtentry4.o)(c_w.l)
    0x080001c6   0x00000000   Code   RO          852    .ARM.Collect$$rtentry$$00000009  c_w.l(rtentry2.o)(c_w.l)
    0x080001c6   0x00000004   Code   RO          853    .ARM.Collect$$rtentry$$0000000A  c_w.l(rtentry2.o)(c_w.l)
    0x080001ca   0x00000000   Code   RO          855    .ARM.Collect$$rtentry$$0000000C  c_w.l(rtentry2.o)(c_w.l)
    0x080001ca   0x00000008   Code   RO          856    .ARM.Collect$$rtentry$$0000000D  c_w.l(rtentry2.o)(c_w.l)
    0x080001d2   0x00000002   Code   RO          889    .ARM.Collect$$rtexit$$00000000  c_w.l(rtexit.o)(c_w.l)
    0x080001d4   0x00000000   Code   RO          935    .ARM.Collect$$rtexit$$00000002  c_w.l(rtexit2.o)(c_w.l)
    0x080001d4   0x00000004   Code   RO          936    .ARM.Collect$$rtexit$$00000003  c_w.l(rtexit2.o)(c_w.l)
    0x080001d8   0x00000006   Code   RO          937    .ARM.Collect$$rtexit$$00000004  c_w.l(rtexit2.o)(c_w.l)
    0x080001de   0x00000002   PAD
    0x080001e0   0x0000000c   Code   RO          334    .emb_text           sys.o
    0x080001ec   0x000000fc   Code   RO            1    .text               main.o
    0x080002e8   0x000002e0   Code   RO          154    .text               eth0.o
    0x080005c8   0x0000001a   Code   RO          174    .text               stm32f10x_it.o
    0x080005e2   0x00000002   PAD
    0x080005e4   0x000001c8   Code   RO          209    .text               system_stm32f10x.o
    0x080007ac   0x00000084   Code   RO          239    .text               timerx.o
    0x08000830   0x00000144   Code   RO          254    .text               stmflash.o
    0x08000974   0x000000e4   Code   RO          285    .text               spi_enc28j60.o
    0x08000a58   0x00000430   Code   RO          303    .text               enc28j60.o
    0x08000e88   0x000000c4   Code   RO          320    .text               delay.o
    0x08000f4c   0x0000000c   Code   RO          335    .text               sys.o
    0x08000f58   0x00000140   Code   RO          351    .text               usart.o
    0x08001098   0x00000040   Code   RO          387    .text               startup_stm32f10x_hd.o
    0x080010d8   0x000000f8   Code   RO          392    .text               misc.o
    0x080011d0   0x00000358   Code   RO          443    .text               stm32f10x_gpio.o
    0x08001528   0x000003a4   Code   RO          467    .text               stm32f10x_rcc.o
    0x080018cc   0x0000040c   Code   RO          481    .text               stm32f10x_usart.o
    0x08001cd8   0x00000dae   Code   RO          505    .text               stm32f10x_tim.o
    0x08002a86   0x00000002   PAD
    0x08002a88   0x00000310   Code   RO          517    .text               stm32f10x_spi.o
    0x08002d98   0x000005c8   Code   RO          541    .text               stm32f10x_flash.o
    0x08003360   0x00000040   Code   RO          565    .text               timer.o
    0x080033a0   0x00001334   Code   RO          577    .text               uip.o
    0x080046d4   0x0000040c   Code   RO          607    .text               uip_arp.o
    0x08004ae0   0x0000000c   Code   RO          688    .text               clock-arch.o
    0x08004aec   0x0000005c   Code   RO          701    .text               tapdev.o
    0x08004b48   0x000002b4   Code   RO          716    .text               tcp_client_demo.o
    0x08004dfc   0x00000044   Code   RO          747    .text               tcp_demo.o
    0x08004e40   0x00000098   Code   RO          759    .text               iap.o
    0x08004ed8   0x00000002   Code   RO          777    .text               c_w.l(use_no_semi_2.o)(c_w.l)
    0x08004eda   0x00000002   PAD
    0x08004edc   0x00000018   Code   RO          783    .text               c_w.l(noretval__2printf.o)(c_w.l)
    0x08004ef4   0x00000028   Code   RO          785    .text               c_w.l(noretval__2sprintf.o)(c_w.l)
    0x08004f1c   0x0000006a   Code   RO          787    .text               c_w.l(__printf.o)(c_w.l)
    0x08004f86   0x00000052   Code   RO          789    .text               c_w.l(_printf_str.o)(c_w.l)
    0x08004fd8   0x00000074   Code   RO          791    .text               c_w.l(_printf_dec.o)(c_w.l)
    0x0800504c   0x00000048   Code   RO          814    .text               c_w.l(strcpy.o)(c_w.l)
    0x08005094   0x0000003e   Code   RO          816    .text               c_w.l(strlen.o)(c_w.l)
    0x080050d2   0x0000008a   Code   RO          818    .text               c_w.l(rt_memcpy_v6.o)(c_w.l)
    0x0800515c   0x00000010   Code   RO          820    .text               c_w.l(aeabi_memset.o)(c_w.l)
    0x0800516c   0x00000080   Code   RO          822    .text               c_w.l(strcmpv7m.o)(c_w.l)
    0x080051ec   0x00000006   Code   RO          824    .text               c_w.l(heapauxi.o)(c_w.l)
    0x080051f2   0x00000002   Code   RO          828    .text               c_w.l(use_no_semi.o)(c_w.l)
    0x080051f4   0x000000b4   Code   RO          832    .text               c_w.l(_printf_intcommon.o)(c_w.l)
    0x080052a8   0x00000030   Code   RO          834    .text               c_w.l(_printf_char_common.o)(c_w.l)
    0x080052d8   0x0000000a   Code   RO          836    .text               c_w.l(_sputc.o)(c_w.l)
    0x080052e2   0x0000002c   Code   RO          838    .text               c_w.l(_printf_char.o)(c_w.l)
    0x0800530e   0x00000002   PAD
    0x08005310   0x00000024   Code   RO          840    .text               c_w.l(_printf_char_file.o)(c_w.l)
    0x08005334   0x00000064   Code   RO          843    .text               c_w.l(rt_memcpy_w.o)(c_w.l)
    0x08005398   0x00000044   Code   RO          845    .text               c_w.l(rt_memclr.o)(c_w.l)
    0x080053dc   0x00000010   Code   RO          847    .text               c_w.l(rtudiv10.o)(c_w.l)
    0x080053ec   0x00000008   Code   RO          869    .text               c_w.l(ferror.o)(c_w.l)
    0x080053f4   0x0000004e   Code   RO          873    .text               c_w.l(rt_memclr_w.o)(c_w.l)
    0x08005442   0x0000004a   Code   RO          875    .text               c_w.l(sys_stackheap_outer.o)(c_w.l)
    0x0800548c   0x0000000c   Code   RO          877    .text               c_w.l(exit.o)(c_w.l)
    0x08005498   0x00000008   Code   RO          886    .text               c_w.l(libspace.o)(c_w.l)
    0x080054a0   0x0000000c   Code   RO          945    .text               c_w.l(rt_fp_status_addr_intlibspace.o)(c_w.l)
    0x080054ac   0x0000000e   Code   RO          932    x$fpl$fpinit        fz_ws.l(fpinit.o)(fz_ws.l)
    0x080054ba   0x00000004   Data   RO          579    .constdata          uip.o
    0x080054be   0x0000000a   Data   RO          609    .constdata          uip_arp.o
    0x080054c8   0x00000006   Data   RO          702    .constdata          tapdev.o
    0x080054ce   0x00000002   PAD
    0x080054d0   0x00000020   Data   RO         1009    Region$$Table       anon$$obj.o


    Execution Region RW_IRAM1 (Base: 0x20000000, Size: 0x0000ad20, Max: 0x00010000, ABSOLUTE)

    Base Addr    Size         Type   Attr      Idx    E Section Name        Object

    0x20000000   0x00000001   Data   RW            2    .data               main.o
    0x20000001   0x00000003   PAD
    0x20000004   0x00000015   Data   RW          156    .data               eth0.o
    0x20000019   0x00000003   PAD
    0x2000001c   0x00000014   Data   RW          210    .data               system_stm32f10x.o
    0x20000030   0x00000004   Data   RW          240    .data               timerx.o
    0x20000034   0x00000008   Data   RW          304    .data               enc28j60.o
    0x2000003c   0x00000004   Data   RW          321    .data               delay.o
    0x20000040   0x00000008   Data   RW          353    .data               usart.o
    0x20000048   0x00000014   Data   RW          468    .data               stm32f10x_rcc.o
    0x2000005c   0x00000038   Data   RW          580    .data               uip.o
    0x20000094   0x00000008   Data   RW          610    .data               uip_arp.o
    0x2000009c   0x00000003   Data   RW          718    .data               tcp_client_demo.o
    0x2000009f   0x00000001   PAD
    0x200000a0   0x00000004   Data   RW          761    .data               iap.o
    0x200000a4   0x00000800   Zero   RW          255    .bss                stmflash.o
    0x200008a4   0x000000c8   Zero   RW          352    .bss                usart.o
    0x2000096c   0x00000060   Zero   RW          608    .bss                uip_arp.o
    0x200009cc   0x000005dc   Zero   RW          717    .bss                tcp_client_demo.o
    0x20000fa8   0x00000058   PAD
    0x20001000   0x00007800   Zero   RW          155    .ARM.__AT_0x20001000  eth0.o
    0x20008800   0x000016c0   Zero   RW          578    .bss                uip.o
    0x20009ec0   0x00000800   Zero   RW          760    .bss                iap.o
    0x2000a6c0   0x00000060   Zero   RW          887    .bss                c_w.l(libspace.o)(c_w.l)
    0x2000a720   0x00000200   Zero   RW          385    HEAP                startup_stm32f10x_hd.o
    0x2000a920   0x00000400   Zero   RW          384    STACK               startup_stm32f10x_hd.o


==============================================================================

Image component sizes


      Code (inc. data)   RO Data    RW Data    ZI Data      Debug   Object Name

        12          6          0          0          0          0   clock-arch.o
       196         16          0          4          0          0   delay.o
      1072         16          0          8          0          0   enc28j60.o
       736        214          0         21      30720          0   eth0.o
       152         14          0          4       2048          0   iap.o
       252         54          0          1          0          0   main.o
       248         30          0          0          0          0   misc.o
       228         10          0          0          0          0   spi_enc28j60.o
        64         26        304          0       1536          0   startup_stm32f10x_hd.o
      1480         52          0          0          0          0   stm32f10x_flash.o
       856         40          0          0          0          0   stm32f10x_gpio.o
        26          0          0          0          0          0   stm32f10x_it.o
       932         52          0         20          0          0   stm32f10x_rcc.o
       784         12          0          0          0          0   stm32f10x_spi.o
      3502         86          0          0          0          0   stm32f10x_tim.o
      1036         20          0          0          0          0   stm32f10x_usart.o
       324          8          0          0       2048          0   stmflash.o
        24          0          0          0          0          0   sys.o
       456         36          0         20          0          0   system_stm32f10x.o
        92         16          6          0          0          0   tapdev.o
       692        194          0          3       1500          0   tcp_client_demo.o
        68         20          0          0          0          0   tcp_demo.o
        64          0          0          0          0          0   timer.o
       132         10          0          4          0          0   timerx.o
      4916        524          4         56       5824          0   uip.o
      1036         60         10          8         96          0   uip_arp.o
       320         20          0          8        200          0   usart.o

    ----------------------------------------------------------------------
     19704       1536        358        164      44060          0   Object Totals
         0          0         32          0          0          0   (incl. Generated)
         4          0          2          7         88          3   (incl. Padding)

    ----------------------------------------------------------------------

      Code (inc. data)   RO Data    RW Data    ZI Data      Debug   Library Member Name

         8          0          0          0          0          0   __main.o
       106          0          0          0          0          0   __printf.o
        52          8          0          0          0          0   __scatter.o
        26          0          0          0          0          0   __scatter_copy.o
        28          0          0          0          0          0   __scatter_zi.o
        44          0          0          0          0          0   _printf_char.o
        48          6          0          0          0          0   _printf_char_common.o
        36          4          0          0          0          0   _printf_char_file.o
         6          0          0          0          0          0   _printf_d.o
       116         18          0          0          0          0   _printf_dec.o
       180          0          0          0          0          0   _printf_intcommon.o
         0          0          0          0          0          0   _printf_percent.o
         4          0          0          0          0          0   _printf_percent_end.o
         6          0          0          0          0          0   _printf_s.o
        82          0          0          0          0          0   _printf_str.o
        10          0          0          0          0          0   _sputc.o
        16          0          0          0          0          0   aeabi_memset.o
        12          0          0          0          0          0   exit.o
         8          0          0          0          0          0   ferror.o
         6          0          0          0          0          0   heapauxi.o
         6          0          0          0          0          0   libinit.o
         2          0          0          0          0          0   libinit2.o
         2          0          0          0          0          0   libshutdown.o
         2          0          0          0          0          0   libshutdown2.o
         8          4          0          0         96          0   libspace.o
        24          4          0          0          0          0   noretval__2printf.o
        40          6          0          0          0          0   noretval__2sprintf.o
        12          4          0          0          0          0   rt_fp_status_addr_intlibspace.o
        68          0          0          0          0          0   rt_memclr.o
        78          0          0          0          0          0   rt_memclr_w.o
       138          0          0          0          0          0   rt_memcpy_v6.o
       100          0          0          0          0          0   rt_memcpy_w.o
         0          0          0          0          0          0   rtentry.o
        12          0          0          0          0          0   rtentry2.o
         6          0          0          0          0          0   rtentry4.o
         2          0          0          0          0          0   rtexit.o
        10          0          0          0          0          0   rtexit2.o
        16          0          0          0          0          0   rtudiv10.o
       128          0          0          0          0          0   strcmpv7m.o
        72          0          0          0          0          0   strcpy.o
        62          0          0          0          0          0   strlen.o
        74          0          0          0          0          0   sys_stackheap_outer.o
         2          0          0          0          0          0   use_no_semi.o
         2          0          0          0          0          0   use_no_semi_2.o
        14          0          0          0          0          0   fpinit.o

    ----------------------------------------------------------------------
      1682         54          0          0         96          0   Library Totals
         8          0          0          0          0          0   (incl. Padding)

    ----------------------------------------------------------------------

      Code (inc. data)   RO Data    RW Data    ZI Data      Debug   Library Name

      1660         54          0          0         96       2228   c_w.l
        14          0          0          0          0         76   fz_ws.l

    ----------------------------------------------------------------------
      1682         54          0          0         96          0   Library Totals

    ----------------------------------------------------------------------

==============================================================================


      Code (inc. data)   RO Data    RW Data    ZI Data      Debug   

     21386       1590        358        164      44156     388984   Grand Totals
     21386       1590        358        164      44156     388984   ELF Image Totals
     21386       1590        358        164          0          0   ROM Totals

==============================================================================

    Total RO  Size (Code + RO Data)                21744 (  21.23kB)
    Total RW  Size (RW Data + ZI Data)             44320 (  43.28kB)
    Total ROM Size (Code + RO Data + RW Data)      21908 (  21.39kB)

==============================================================================

